{
  "address": "0x233C1103d9FAA9BCD387433B8d0A40c1B9Fe1d07",
  "abi": [
    {
      "inputs": [
        {
          "internalType": "string",
          "name": "_NFTName",
          "type": "string"
        },
        {
          "internalType": "string",
          "name": "_NFTSymbol",
          "type": "string"
        }
      ],
      "stateMutability": "nonpayable",
      "type": "constructor"
    },
    {
      "inputs": [],
      "name": "ERC721EnumerableForbiddenBatchMint",
      "type": "error"
    },
    {
      "inputs": [
        {
          "internalType": "address",
          "name": "sender",
          "type": "address"
        },
        {
          "internalType": "uint256",
          "name": "tokenId",
          "type": "uint256"
        },
        {
          "internalType": "address",
          "name": "owner",
          "type": "address"
        }
      ],
      "name": "ERC721IncorrectOwner",
      "type": "error"
    },
    {
      "inputs": [
        {
          "internalType": "address",
          "name": "operator",
          "type": "address"
        },
        {
          "internalType": "uint256",
          "name": "tokenId",
          "type": "uint256"
        }
      ],
      "name": "ERC721InsufficientApproval",
      "type": "error"
    },
    {
      "inputs": [
        {
          "internalType": "address",
          "name": "approver",
          "type": "address"
        }
      ],
      "name": "ERC721InvalidApprover",
      "type": "error"
    },
    {
      "inputs": [
        {
          "internalType": "address",
          "name": "operator",
          "type": "address"
        }
      ],
      "name": "ERC721InvalidOperator",
      "type": "error"
    },
    {
      "inputs": [
        {
          "internalType": "address",
          "name": "owner",
          "type": "address"
        }
      ],
      "name": "ERC721InvalidOwner",
      "type": "error"
    },
    {
      "inputs": [
        {
          "internalType": "address",
          "name": "receiver",
          "type": "address"
        }
      ],
      "name": "ERC721InvalidReceiver",
      "type": "error"
    },
    {
      "inputs": [
        {
          "internalType": "address",
          "name": "sender",
          "type": "address"
        }
      ],
      "name": "ERC721InvalidSender",
      "type": "error"
    },
    {
      "inputs": [
        {
          "internalType": "uint256",
          "name": "tokenId",
          "type": "uint256"
        }
      ],
      "name": "ERC721NonexistentToken",
      "type": "error"
    },
    {
      "inputs": [
        {
          "internalType": "address",
          "name": "owner",
          "type": "address"
        },
        {
          "internalType": "uint256",
          "name": "index",
          "type": "uint256"
        }
      ],
      "name": "ERC721OutOfBoundsIndex",
      "type": "error"
    },
    {
      "inputs": [
        {
          "internalType": "address",
          "name": "owner",
          "type": "address"
        }
      ],
      "name": "OwnableInvalidOwner",
      "type": "error"
    },
    {
      "inputs": [
        {
          "internalType": "address",
          "name": "account",
          "type": "address"
        }
      ],
      "name": "OwnableUnauthorizedAccount",
      "type": "error"
    },
    {
      "anonymous": false,
      "inputs": [
        {
          "indexed": true,
          "internalType": "address",
          "name": "owner",
          "type": "address"
        },
        {
          "indexed": true,
          "internalType": "address",
          "name": "approved",
          "type": "address"
        },
        {
          "indexed": true,
          "internalType": "uint256",
          "name": "tokenId",
          "type": "uint256"
        }
      ],
      "name": "Approval",
      "type": "event"
    },
    {
      "anonymous": false,
      "inputs": [
        {
          "indexed": true,
          "internalType": "address",
          "name": "owner",
          "type": "address"
        },
        {
          "indexed": true,
          "internalType": "address",
          "name": "operator",
          "type": "address"
        },
        {
          "indexed": false,
          "internalType": "bool",
          "name": "approved",
          "type": "bool"
        }
      ],
      "name": "ApprovalForAll",
      "type": "event"
    },
    {
      "anonymous": false,
      "inputs": [
        {
          "indexed": false,
          "internalType": "uint256",
          "name": "_fromTokenId",
          "type": "uint256"
        },
        {
          "indexed": false,
          "internalType": "uint256",
          "name": "_toTokenId",
          "type": "uint256"
        }
      ],
      "name": "BatchMetadataUpdate",
      "type": "event"
    },
    {
      "anonymous": false,
      "inputs": [
        {
          "indexed": false,
          "internalType": "uint256",
          "name": "_tokenId",
          "type": "uint256"
        }
      ],
      "name": "MetadataUpdate",
      "type": "event"
    },
    {
      "anonymous": false,
      "inputs": [
        {
          "indexed": true,
          "internalType": "address",
          "name": "to",
          "type": "address"
        },
        {
          "indexed": true,
          "internalType": "uint256",
          "name": "tokenId",
          "type": "uint256"
        }
      ],
      "name": "Minted",
      "type": "event"
    },
    {
      "anonymous": false,
      "inputs": [
        {
          "indexed": true,
          "internalType": "address",
          "name": "previousOwner",
          "type": "address"
        },
        {
          "indexed": true,
          "internalType": "address",
          "name": "newOwner",
          "type": "address"
        }
      ],
      "name": "OwnershipTransferred",
      "type": "event"
    },
    {
      "anonymous": false,
      "inputs": [
        {
          "indexed": true,
          "internalType": "address",
          "name": "from",
          "type": "address"
        },
        {
          "indexed": true,
          "internalType": "address",
          "name": "to",
          "type": "address"
        },
        {
          "indexed": true,
          "internalType": "uint256",
          "name": "tokenId",
          "type": "uint256"
        }
      ],
      "name": "Transfer",
      "type": "event"
    },
    {
      "inputs": [
        {
          "internalType": "address",
          "name": "to",
          "type": "address"
        },
        {
          "internalType": "uint256",
          "name": "tokenId",
          "type": "uint256"
        }
      ],
      "name": "approve",
      "outputs": [],
      "stateMutability": "nonpayable",
      "type": "function"
    },
    {
      "inputs": [
        {
          "internalType": "address",
          "name": "owner",
          "type": "address"
        }
      ],
      "name": "balanceOf",
      "outputs": [
        {
          "internalType": "uint256",
          "name": "",
          "type": "uint256"
        }
      ],
      "stateMutability": "view",
      "type": "function"
    },
    {
      "inputs": [
        {
          "internalType": "uint256",
          "name": "tokenId",
          "type": "uint256"
        }
      ],
      "name": "burn",
      "outputs": [],
      "stateMutability": "nonpayable",
      "type": "function"
    },
    {
      "inputs": [
        {
          "internalType": "uint256",
          "name": "tokenId",
          "type": "uint256"
        }
      ],
      "name": "getApproved",
      "outputs": [
        {
          "internalType": "address",
          "name": "",
          "type": "address"
        }
      ],
      "stateMutability": "view",
      "type": "function"
    },
    {
      "inputs": [
        {
          "internalType": "address",
          "name": "owner",
          "type": "address"
        }
      ],
      "name": "getTokenIdsByOwner",
      "outputs": [
        {
          "internalType": "uint256[]",
          "name": "",
          "type": "uint256[]"
        }
      ],
      "stateMutability": "view",
      "type": "function"
    },
    {
      "inputs": [
        {
          "internalType": "address",
          "name": "owner",
          "type": "address"
        },
        {
          "internalType": "address",
          "name": "operator",
          "type": "address"
        }
      ],
      "name": "isApprovedForAll",
      "outputs": [
        {
          "internalType": "bool",
          "name": "",
          "type": "bool"
        }
      ],
      "stateMutability": "view",
      "type": "function"
    },
    {
      "inputs": [
        {
          "internalType": "uint256",
          "name": "",
          "type": "uint256"
        }
      ],
      "name": "isTokenIdExitStill",
      "outputs": [
        {
          "internalType": "bool",
          "name": "",
          "type": "bool"
        }
      ],
      "stateMutability": "view",
      "type": "function"
    },
    {
      "inputs": [],
      "name": "name",
      "outputs": [
        {
          "internalType": "string",
          "name": "",
          "type": "string"
        }
      ],
      "stateMutability": "view",
      "type": "function"
    },
    {
      "inputs": [],
      "name": "owner",
      "outputs": [
        {
          "internalType": "address",
          "name": "",
          "type": "address"
        }
      ],
      "stateMutability": "view",
      "type": "function"
    },
    {
      "inputs": [
        {
          "internalType": "uint256",
          "name": "tokenId",
          "type": "uint256"
        }
      ],
      "name": "ownerOf",
      "outputs": [
        {
          "internalType": "address",
          "name": "",
          "type": "address"
        }
      ],
      "stateMutability": "view",
      "type": "function"
    },
    {
      "inputs": [],
      "name": "renounceOwnership",
      "outputs": [],
      "stateMutability": "nonpayable",
      "type": "function"
    },
    {
      "inputs": [
        {
          "internalType": "uint256",
          "name": "_tokenId",
          "type": "uint256"
        }
      ],
      "name": "safeBurn",
      "outputs": [
        {
          "internalType": "uint256",
          "name": "",
          "type": "uint256"
        }
      ],
      "stateMutability": "nonpayable",
      "type": "function"
    },
    {
      "inputs": [
        {
          "internalType": "address",
          "name": "to",
          "type": "address"
        }
      ],
      "name": "safeMint",
      "outputs": [
        {
          "internalType": "uint256",
          "name": "",
          "type": "uint256"
        }
      ],
      "stateMutability": "nonpayable",
      "type": "function"
    },
    {
      "inputs": [
        {
          "internalType": "address",
          "name": "from",
          "type": "address"
        },
        {
          "internalType": "address",
          "name": "to",
          "type": "address"
        },
        {
          "internalType": "uint256",
          "name": "tokenId",
          "type": "uint256"
        }
      ],
      "name": "safeTransferFrom",
      "outputs": [],
      "stateMutability": "nonpayable",
      "type": "function"
    },
    {
      "inputs": [
        {
          "internalType": "address",
          "name": "from",
          "type": "address"
        },
        {
          "internalType": "address",
          "name": "to",
          "type": "address"
        },
        {
          "internalType": "uint256",
          "name": "tokenId",
          "type": "uint256"
        },
        {
          "internalType": "bytes",
          "name": "data",
          "type": "bytes"
        }
      ],
      "name": "safeTransferFrom",
      "outputs": [],
      "stateMutability": "nonpayable",
      "type": "function"
    },
    {
      "inputs": [
        {
          "internalType": "address",
          "name": "operator",
          "type": "address"
        },
        {
          "internalType": "bool",
          "name": "approved",
          "type": "bool"
        }
      ],
      "name": "setApprovalForAll",
      "outputs": [],
      "stateMutability": "nonpayable",
      "type": "function"
    },
    {
      "inputs": [
        {
          "internalType": "bytes4",
          "name": "interfaceId",
          "type": "bytes4"
        }
      ],
      "name": "supportsInterface",
      "outputs": [
        {
          "internalType": "bool",
          "name": "",
          "type": "bool"
        }
      ],
      "stateMutability": "view",
      "type": "function"
    },
    {
      "inputs": [],
      "name": "symbol",
      "outputs": [
        {
          "internalType": "string",
          "name": "",
          "type": "string"
        }
      ],
      "stateMutability": "view",
      "type": "function"
    },
    {
      "inputs": [
        {
          "internalType": "uint256",
          "name": "index",
          "type": "uint256"
        }
      ],
      "name": "tokenByIndex",
      "outputs": [
        {
          "internalType": "uint256",
          "name": "",
          "type": "uint256"
        }
      ],
      "stateMutability": "view",
      "type": "function"
    },
    {
      "inputs": [
        {
          "internalType": "uint256",
          "name": "_tokenId",
          "type": "uint256"
        }
      ],
      "name": "tokenIdIsExitOrNot",
      "outputs": [
        {
          "internalType": "bool",
          "name": "",
          "type": "bool"
        }
      ],
      "stateMutability": "view",
      "type": "function"
    },
    {
      "inputs": [
        {
          "internalType": "address",
          "name": "owner",
          "type": "address"
        },
        {
          "internalType": "uint256",
          "name": "index",
          "type": "uint256"
        }
      ],
      "name": "tokenOfOwnerByIndex",
      "outputs": [
        {
          "internalType": "uint256",
          "name": "",
          "type": "uint256"
        }
      ],
      "stateMutability": "view",
      "type": "function"
    },
    {
      "inputs": [
        {
          "internalType": "uint256",
          "name": "tokenId",
          "type": "uint256"
        }
      ],
      "name": "tokenURI",
      "outputs": [
        {
          "internalType": "string",
          "name": "",
          "type": "string"
        }
      ],
      "stateMutability": "view",
      "type": "function"
    },
    {
      "inputs": [],
      "name": "totalSupply",
      "outputs": [
        {
          "internalType": "uint256",
          "name": "",
          "type": "uint256"
        }
      ],
      "stateMutability": "view",
      "type": "function"
    },
    {
      "inputs": [
        {
          "internalType": "address",
          "name": "from",
          "type": "address"
        },
        {
          "internalType": "address",
          "name": "to",
          "type": "address"
        },
        {
          "internalType": "uint256",
          "name": "tokenId",
          "type": "uint256"
        }
      ],
      "name": "transferFrom",
      "outputs": [],
      "stateMutability": "nonpayable",
      "type": "function"
    },
    {
      "inputs": [
        {
          "internalType": "address",
          "name": "newOwner",
          "type": "address"
        }
      ],
      "name": "transferOwnership",
      "outputs": [],
      "stateMutability": "nonpayable",
      "type": "function"
    }
  ],
  "transactionHash": "0xb7a0393a6e027ad8e4f8d6c93fa8e6d5804b03a269564d75a97eb2fd62f0377d",
  "args": [
    "MyToken",
    "MT"
  ],
  "numDeployments": 3,
  "solcInputHash": "5fb40cef0067a048b45c1eb26c8b0383",
  "bytecode": "0x608060405234801561001057600080fd5b506040516137b13803806137b18339818101604052810190610032919061031b565b338282816000908161004491906105b4565b50806001908161005491906105b4565b505050600073ffffffffffffffffffffffffffffffffffffffff168173ffffffffffffffffffffffffffffffffffffffff16036100c95760006040517f1e4fbdf70000000000000000000000000000000000000000000000000000000081526004016100c091906106c7565b60405180910390fd5b6100d8816100e060201b60201c565b5050506106e2565b6000600b60009054906101000a900473ffffffffffffffffffffffffffffffffffffffff16905081600b60006101000a81548173ffffffffffffffffffffffffffffffffffffffff021916908373ffffffffffffffffffffffffffffffffffffffff1602179055508173ffffffffffffffffffffffffffffffffffffffff168173ffffffffffffffffffffffffffffffffffffffff167f8be0079c531659141344cd1fd0a4f28419497f9722a3daafe3b4186f6b6457e060405160405180910390a35050565b6000604051905090565b600080fd5b600080fd5b600080fd5b600080fd5b6000601f19601f8301169050919050565b7f4e487b7100000000000000000000000000000000000000000000000000000000600052604160045260246000fd5b61020d826101c4565b810181811067ffffffffffffffff8211171561022c5761022b6101d5565b5b80604052505050565b600061023f6101a6565b905061024b8282610204565b919050565b600067ffffffffffffffff82111561026b5761026a6101d5565b5b610274826101c4565b9050602081019050919050565b60005b8381101561029f578082015181840152602081019050610284565b60008484015250505050565b60006102be6102b984610250565b610235565b9050828152602081018484840111156102da576102d96101bf565b5b6102e5848285610281565b509392505050565b600082601f830112610302576103016101ba565b5b81516103128482602086016102ab565b91505092915050565b60008060408385031215610332576103316101b0565b5b600083015167ffffffffffffffff8111156103505761034f6101b5565b5b61035c858286016102ed565b925050602083015167ffffffffffffffff81111561037d5761037c6101b5565b5b610389858286016102ed565b9150509250929050565b600081519050919050565b7f4e487b7100000000000000000000000000000000000000000000000000000000600052602260045260246000fd5b600060028204905060018216806103e557607f821691505b6020821081036103f8576103f761039e565b5b50919050565b60008190508160005260206000209050919050565b60006020601f8301049050919050565b600082821b905092915050565b6000600883026104607fffffffffffffffffffffffffffffffffffffffffffffffffffffffffffffffff82610423565b61046a8683610423565b95508019841693508086168417925050509392505050565b6000819050919050565b6000819050919050565b60006104b16104ac6104a784610482565b61048c565b610482565b9050919050565b6000819050919050565b6104cb83610496565b6104df6104d7826104b8565b848454610430565b825550505050565b600090565b6104f46104e7565b6104ff8184846104c2565b505050565b5b81811015610523576105186000826104ec565b600181019050610505565b5050565b601f82111561056857610539816103fe565b61054284610413565b81016020851015610551578190505b61056561055d85610413565b830182610504565b50505b505050565b600082821c905092915050565b600061058b6000198460080261056d565b1980831691505092915050565b60006105a4838361057a565b9150826002028217905092915050565b6105bd82610393565b67ffffffffffffffff8111156105d6576105d56101d5565b5b6105e082546103cd565b6105eb828285610527565b600060209050601f83116001811461061e576000841561060c578287015190505b6106168582610598565b86555061067e565b601f19841661062c866103fe565b60005b828110156106545784890151825560018201915060208501945060208101905061062f565b86831015610671578489015161066d601f89168261057a565b8355505b6001600288020188555050505b505050505050565b600073ffffffffffffffffffffffffffffffffffffffff82169050919050565b60006106b182610686565b9050919050565b6106c1816106a6565b82525050565b60006020820190506106dc60008301846106b8565b92915050565b6130c0806106f16000396000f3fe608060405234801561001057600080fd5b50600436106101735760003560e01c806355948f51116100de57806395d89b4111610097578063c87b56dd11610071578063c87b56dd14610482578063dbf51325146104b2578063e985e9c5146104e2578063f2fde38b1461051257610173565b806395d89b411461042c578063a22cb4651461044a578063b88d4fde1461046657610173565b806355948f51146103445780636352211e146103745780636970bb0a146103a457806370a08231146103d4578063715018a6146104045780638da5cb5b1461040e57610173565b80632f745c59116101305780632f745c591461024c57806340d097c31461027c57806342842e0e146102ac57806342966c68146102c85780634a49fb45146102e45780634f6ccce71461031457610173565b806301ffc9a71461017857806306fdde03146101a8578063081812fc146101c6578063095ea7b3146101f657806318160ddd1461021257806323b872dd14610230575b600080fd5b610192600480360381019061018d9190612469565b61052e565b60405161019f91906124b1565b60405180910390f35b6101b0610540565b6040516101bd919061255c565b60405180910390f35b6101e060048036038101906101db91906125b4565b6105d2565b6040516101ed9190612622565b60405180910390f35b610210600480360381019061020b9190612669565b6105ee565b005b61021a610604565b60405161022791906126b8565b60405180910390f35b61024a600480360381019061024591906126d3565b610611565b005b61026660048036038101906102619190612669565b610713565b60405161027391906126b8565b60405180910390f35b61029660048036038101906102919190612726565b6107bc565b6040516102a391906126b8565b60405180910390f35b6102c660048036038101906102c191906126d3565b61087d565b005b6102e260048036038101906102dd91906125b4565b61089d565b005b6102fe60048036038101906102f991906125b4565b6108b4565b60405161030b91906124b1565b60405180910390f35b61032e600480360381019061032991906125b4565b6108ef565b60405161033b91906126b8565b60405180910390f35b61035e600480360381019061035991906125b4565b610965565b60405161036b91906124b1565b60405180910390f35b61038e600480360381019061038991906125b4565b610985565b60405161039b9190612622565b60405180910390f35b6103be60048036038101906103b99190612726565b610997565b6040516103cb9190612811565b60405180910390f35b6103ee60048036038101906103e99190612726565b610a3f565b6040516103fb91906126b8565b60405180910390f35b61040c610af9565b005b610416610b0d565b6040516104239190612622565b60405180910390f35b610434610b37565b604051610441919061255c565b60405180910390f35b610464600480360381019061045f919061285f565b610bc9565b005b610480600480360381019061047b91906129d4565b610bdf565b005b61049c600480360381019061049791906125b4565b610bfc565b6040516104a9919061255c565b60405180910390f35b6104cc60048036038101906104c791906125b4565b610c0e565b6040516104d991906126b8565b60405180910390f35b6104fc60048036038101906104f79190612a57565b610c4d565b60405161050991906124b1565b60405180910390f35b61052c60048036038101906105279190612726565b610ce1565b005b600061053982610d67565b9050919050565b60606000805461054f90612ac6565b80601f016020809104026020016040519081016040528092919081815260200182805461057b90612ac6565b80156105c85780601f1061059d576101008083540402835291602001916105c8565b820191906000526020600020905b8154815290600101906020018083116105ab57829003601f168201915b5050505050905090565b60006105dd82610dc8565b506105e782610e50565b9050919050565b61060082826105fb610e8d565b610e95565b5050565b6000600880549050905090565b600073ffffffffffffffffffffffffffffffffffffffff168273ffffffffffffffffffffffffffffffffffffffff16036106835760006040517f64a0ae9200000000000000000000000000000000000000000000000000000000815260040161067a9190612622565b60405180910390fd5b60006106978383610692610e8d565b610ea7565b90508373ffffffffffffffffffffffffffffffffffffffff168173ffffffffffffffffffffffffffffffffffffffff161461070d578382826040517f64283d7b00000000000000000000000000000000000000000000000000000000815260040161070493929190612af7565b60405180910390fd5b50505050565b600061071e83610a3f565b82106107635782826040517fa57d13dc00000000000000000000000000000000000000000000000000000000815260040161075a929190612b2e565b60405180910390fd5b600660008473ffffffffffffffffffffffffffffffffffffffff1673ffffffffffffffffffffffffffffffffffffffff168152602001908152602001600020600083815260200190815260200160002054905092915050565b600080600c60008154809291906107d290612b86565b9190505590506107e28382610ebd565b610804816040518060600160405280603a8152602001613051603a9139610edb565b6001600d600083815260200190815260200160002060006101000a81548160ff021916908315150217905550808373ffffffffffffffffffffffffffffffffffffffff167f30385c845b448a36257a6a1716e6ad2e1bc2cbe333cde1e69fe849ad6511adfe60405160405180910390a380915050919050565b61089883838360405180602001604052806000815250610bdf565b505050565b6108b06000826108ab610e8d565b610ea7565b5050565b6000600d600083815260200190815260200160002060009054906101000a900460ff16156108e557600190506108ea565b600090505b919050565b60006108f9610604565b821061093f576000826040517fa57d13dc000000000000000000000000000000000000000000000000000000008152600401610936929190612b2e565b60405180910390fd5b6008828154811061095357610952612bce565b5b90600052602060002001549050919050565b600d6020528060005260406000206000915054906101000a900460ff1681565b600061099082610dc8565b9050919050565b606060006109a483610a3f565b905060008167ffffffffffffffff8111156109c2576109c16128a9565b5b6040519080825280602002602001820160405280156109f05781602001602082028036833780820191505090505b50905060005b82811015610a3457610a088582610713565b828281518110610a1b57610a1a612bce565b5b60200260200101818152505080806001019150506109f6565b508092505050919050565b60008073ffffffffffffffffffffffffffffffffffffffff168273ffffffffffffffffffffffffffffffffffffffff1603610ab25760006040517f89c62b64000000000000000000000000000000000000000000000000000000008152600401610aa99190612622565b60405180910390fd5b600360008373ffffffffffffffffffffffffffffffffffffffff1673ffffffffffffffffffffffffffffffffffffffff168152602001908152602001600020549050919050565b610b01610f37565b610b0b6000610fbe565b565b6000600b60009054906101000a900473ffffffffffffffffffffffffffffffffffffffff16905090565b606060018054610b4690612ac6565b80601f0160208091040260200160405190810160405280929190818152602001828054610b7290612ac6565b8015610bbf5780601f10610b9457610100808354040283529160200191610bbf565b820191906000526020600020905b815481529060010190602001808311610ba257829003601f168201915b5050505050905090565b610bdb610bd4610e8d565b8383611084565b5050565b610bea848484610611565b610bf6848484846111f3565b50505050565b6060610c07826113aa565b9050919050565b6000610c198261089d565b6000600d600084815260200190815260200160002060006101000a81548160ff021916908315150217905550819050919050565b6000600560008473ffffffffffffffffffffffffffffffffffffffff1673ffffffffffffffffffffffffffffffffffffffff16815260200190815260200160002060008373ffffffffffffffffffffffffffffffffffffffff1673ffffffffffffffffffffffffffffffffffffffff16815260200190815260200160002060009054906101000a900460ff16905092915050565b610ce9610f37565b600073ffffffffffffffffffffffffffffffffffffffff168173ffffffffffffffffffffffffffffffffffffffff1603610d5b5760006040517f1e4fbdf7000000000000000000000000000000000000000000000000000000008152600401610d529190612622565b60405180910390fd5b610d6481610fbe565b50565b6000634906490660e01b7bffffffffffffffffffffffffffffffffffffffffffffffffffffffff1916827bffffffffffffffffffffffffffffffffffffffffffffffffffffffff19161480610dc15750610dc0826114bd565b5b9050919050565b600080610dd483611537565b9050600073ffffffffffffffffffffffffffffffffffffffff168173ffffffffffffffffffffffffffffffffffffffff1603610e4757826040517f7e273289000000000000000000000000000000000000000000000000000000008152600401610e3e91906126b8565b60405180910390fd5b80915050919050565b60006004600083815260200190815260200160002060009054906101000a900473ffffffffffffffffffffffffffffffffffffffff169050919050565b600033905090565b610ea28383836001611574565b505050565b6000610eb4848484611739565b90509392505050565b610ed7828260405180602001604052806000815250611856565b5050565b80600a60008481526020019081526020016000209081610efb9190612da9565b507ff8e1a15aba9398e019f0b49df1a4fde98ee17ae345cb5f6b5e2c27f5033e8ce782604051610f2b91906126b8565b60405180910390a15050565b610f3f610e8d565b73ffffffffffffffffffffffffffffffffffffffff16610f5d610b0d565b73ffffffffffffffffffffffffffffffffffffffff1614610fbc57610f80610e8d565b6040517f118cdaa7000000000000000000000000000000000000000000000000000000008152600401610fb39190612622565b60405180910390fd5b565b6000600b60009054906101000a900473ffffffffffffffffffffffffffffffffffffffff16905081600b60006101000a81548173ffffffffffffffffffffffffffffffffffffffff021916908373ffffffffffffffffffffffffffffffffffffffff1602179055508173ffffffffffffffffffffffffffffffffffffffff168173ffffffffffffffffffffffffffffffffffffffff167f8be0079c531659141344cd1fd0a4f28419497f9722a3daafe3b4186f6b6457e060405160405180910390a35050565b600073ffffffffffffffffffffffffffffffffffffffff168273ffffffffffffffffffffffffffffffffffffffff16036110f557816040517f5b08ba180000000000000000000000000000000000000000000000000000000081526004016110ec9190612622565b60405180910390fd5b80600560008573ffffffffffffffffffffffffffffffffffffffff1673ffffffffffffffffffffffffffffffffffffffff16815260200190815260200160002060008473ffffffffffffffffffffffffffffffffffffffff1673ffffffffffffffffffffffffffffffffffffffff16815260200190815260200160002060006101000a81548160ff0219169083151502179055508173ffffffffffffffffffffffffffffffffffffffff168373ffffffffffffffffffffffffffffffffffffffff167f17307eab39ab6107e8899845ad3d59bd9653f200f220920489ca2b5937696c31836040516111e691906124b1565b60405180910390a3505050565b60008373ffffffffffffffffffffffffffffffffffffffff163b11156113a4578273ffffffffffffffffffffffffffffffffffffffff1663150b7a02611237610e8d565b8685856040518563ffffffff1660e01b81526004016112599493929190612ed0565b6020604051808303816000875af192505050801561129557506040513d601f19601f820116820180604052508101906112929190612f31565b60015b611319573d80600081146112c5576040519150601f19603f3d011682016040523d82523d6000602084013e6112ca565b606091505b50600081510361131157836040517f64a0ae920000000000000000000000000000000000000000000000000000000081526004016113089190612622565b60405180910390fd5b805181602001fd5b63150b7a0260e01b7bffffffffffffffffffffffffffffffffffffffffffffffffffffffff1916817bffffffffffffffffffffffffffffffffffffffffffffffffffffffff1916146113a257836040517f64a0ae920000000000000000000000000000000000000000000000000000000081526004016113999190612622565b60405180910390fd5b505b50505050565b60606113b582610dc8565b506000600a600084815260200190815260200160002080546113d690612ac6565b80601f016020809104026020016040519081016040528092919081815260200182805461140290612ac6565b801561144f5780601f106114245761010080835404028352916020019161144f565b820191906000526020600020905b81548152906001019060200180831161143257829003601f168201915b505050505090506000611460611872565b905060008151036114755781925050506114b8565b6000825111156114aa578082604051602001611492929190612f9a565b604051602081830303815290604052925050506114b8565b6114b384611889565b925050505b919050565b60007f780e9d63000000000000000000000000000000000000000000000000000000007bffffffffffffffffffffffffffffffffffffffffffffffffffffffff1916827bffffffffffffffffffffffffffffffffffffffffffffffffffffffff19161480611530575061152f826118f2565b5b9050919050565b60006002600083815260200190815260200160002060009054906101000a900473ffffffffffffffffffffffffffffffffffffffff169050919050565b80806115ad5750600073ffffffffffffffffffffffffffffffffffffffff168273ffffffffffffffffffffffffffffffffffffffff1614155b156116e15760006115bd84610dc8565b9050600073ffffffffffffffffffffffffffffffffffffffff168373ffffffffffffffffffffffffffffffffffffffff161415801561162857508273ffffffffffffffffffffffffffffffffffffffff168173ffffffffffffffffffffffffffffffffffffffff1614155b801561163b57506116398184610c4d565b155b1561167d57826040517fa9fbf51f0000000000000000000000000000000000000000000000000000000081526004016116749190612622565b60405180910390fd5b81156116df57838573ffffffffffffffffffffffffffffffffffffffff168273ffffffffffffffffffffffffffffffffffffffff167f8c5be1e5ebec7d5bd14f71427d1e84f3dd0314c0f7b2291e5b200ac8c7c3b92560405160405180910390a45b505b836004600085815260200190815260200160002060006101000a81548173ffffffffffffffffffffffffffffffffffffffff021916908373ffffffffffffffffffffffffffffffffffffffff16021790555050505050565b6000806117478585856119d4565b9050600073ffffffffffffffffffffffffffffffffffffffff168173ffffffffffffffffffffffffffffffffffffffff160361178b5761178684611bee565b6117ca565b8473ffffffffffffffffffffffffffffffffffffffff168173ffffffffffffffffffffffffffffffffffffffff16146117c9576117c88185611c37565b5b5b600073ffffffffffffffffffffffffffffffffffffffff168573ffffffffffffffffffffffffffffffffffffffff160361180c5761180784611d98565b61184b565b8473ffffffffffffffffffffffffffffffffffffffff168173ffffffffffffffffffffffffffffffffffffffff161461184a576118498585611e69565b5b5b809150509392505050565b6118608383611ef4565b61186d60008484846111f3565b505050565b606060405180602001604052806000815250905090565b606061189482610dc8565b50600061189f611872565b905060008151116118bf57604051806020016040528060008152506118ea565b806118c984611fed565b6040516020016118da929190612f9a565b6040516020818303038152906040525b915050919050565b60007f80ac58cd000000000000000000000000000000000000000000000000000000007bffffffffffffffffffffffffffffffffffffffffffffffffffffffff1916827bffffffffffffffffffffffffffffffffffffffffffffffffffffffff191614806119bd57507f5b5e139f000000000000000000000000000000000000000000000000000000007bffffffffffffffffffffffffffffffffffffffffffffffffffffffff1916827bffffffffffffffffffffffffffffffffffffffffffffffffffffffff1916145b806119cd57506119cc826120bb565b5b9050919050565b6000806119e084611537565b9050600073ffffffffffffffffffffffffffffffffffffffff168373ffffffffffffffffffffffffffffffffffffffff1614611a2257611a21818486612125565b5b600073ffffffffffffffffffffffffffffffffffffffff168173ffffffffffffffffffffffffffffffffffffffff1614611ab357611a64600085600080611574565b6001600360008373ffffffffffffffffffffffffffffffffffffffff1673ffffffffffffffffffffffffffffffffffffffff168152602001908152602001600020600082825403925050819055505b600073ffffffffffffffffffffffffffffffffffffffff168573ffffffffffffffffffffffffffffffffffffffff1614611b36576001600360008773ffffffffffffffffffffffffffffffffffffffff1673ffffffffffffffffffffffffffffffffffffffff168152602001908152602001600020600082825401925050819055505b846002600086815260200190815260200160002060006101000a81548173ffffffffffffffffffffffffffffffffffffffff021916908373ffffffffffffffffffffffffffffffffffffffff160217905550838573ffffffffffffffffffffffffffffffffffffffff168273ffffffffffffffffffffffffffffffffffffffff167fddf252ad1be2c89b69c2b068fc378daa952ba7f163c4a11628f55a4df523b3ef60405160405180910390a4809150509392505050565b6008805490506009600083815260200190815260200160002081905550600881908060018154018082558091505060019003906000526020600020016000909190919091505550565b6000611c4283610a3f565b9050600060076000848152602001908152602001600020549050818114611d27576000600660008673ffffffffffffffffffffffffffffffffffffffff1673ffffffffffffffffffffffffffffffffffffffff168152602001908152602001600020600084815260200190815260200160002054905080600660008773ffffffffffffffffffffffffffffffffffffffff1673ffffffffffffffffffffffffffffffffffffffff168152602001908152602001600020600084815260200190815260200160002081905550816007600083815260200190815260200160002081905550505b6007600084815260200190815260200160002060009055600660008573ffffffffffffffffffffffffffffffffffffffff1673ffffffffffffffffffffffffffffffffffffffff16815260200190815260200160002060008381526020019081526020016000206000905550505050565b60006001600880549050611dac9190612fbe565b9050600060096000848152602001908152602001600020549050600060088381548110611ddc57611ddb612bce565b5b906000526020600020015490508060088381548110611dfe57611dfd612bce565b5b906000526020600020018190555081600960008381526020019081526020016000208190555060096000858152602001908152602001600020600090556008805480611e4d57611e4c612ff2565b5b6001900381819060005260206000200160009055905550505050565b60006001611e7684610a3f565b611e809190612fbe565b905081600660008573ffffffffffffffffffffffffffffffffffffffff1673ffffffffffffffffffffffffffffffffffffffff168152602001908152602001600020600083815260200190815260200160002081905550806007600084815260200190815260200160002081905550505050565b600073ffffffffffffffffffffffffffffffffffffffff168273ffffffffffffffffffffffffffffffffffffffff1603611f665760006040517f64a0ae92000000000000000000000000000000000000000000000000000000008152600401611f5d9190612622565b60405180910390fd5b6000611f7483836000610ea7565b9050600073ffffffffffffffffffffffffffffffffffffffff168173ffffffffffffffffffffffffffffffffffffffff1614611fe85760006040517f73c6ac6e000000000000000000000000000000000000000000000000000000008152600401611fdf9190612622565b60405180910390fd5b505050565b606060006001611ffc846121e9565b01905060008167ffffffffffffffff81111561201b5761201a6128a9565b5b6040519080825280601f01601f19166020018201604052801561204d5781602001600182028036833780820191505090505b509050600082602001820190505b6001156120b0578080600190039150507f3031323334353637383961626364656600000000000000000000000000000000600a86061a8153600a85816120a4576120a3613021565b5b0494506000850361205b575b819350505050919050565b60007f01ffc9a7000000000000000000000000000000000000000000000000000000007bffffffffffffffffffffffffffffffffffffffffffffffffffffffff1916827bffffffffffffffffffffffffffffffffffffffffffffffffffffffff1916149050919050565b61213083838361233c565b6121e457600073ffffffffffffffffffffffffffffffffffffffff168373ffffffffffffffffffffffffffffffffffffffff16036121a557806040517f7e27328900000000000000000000000000000000000000000000000000000000815260040161219c91906126b8565b60405180910390fd5b81816040517f177e802f0000000000000000000000000000000000000000000000000000000081526004016121db929190612b2e565b60405180910390fd5b505050565b600080600090507a184f03e93ff9f4daa797ed6e38ed64bf6a1f0100000000000000008310612247577a184f03e93ff9f4daa797ed6e38ed64bf6a1f010000000000000000838161223d5761223c613021565b5b0492506040810190505b6d04ee2d6d415b85acef81000000008310612284576d04ee2d6d415b85acef8100000000838161227a57612279613021565b5b0492506020810190505b662386f26fc1000083106122b357662386f26fc1000083816122a9576122a8613021565b5b0492506010810190505b6305f5e10083106122dc576305f5e10083816122d2576122d1613021565b5b0492506008810190505b61271083106123015761271083816122f7576122f6613021565b5b0492506004810190505b60648310612324576064838161231a57612319613021565b5b0492506002810190505b600a8310612333576001810190505b80915050919050565b60008073ffffffffffffffffffffffffffffffffffffffff168373ffffffffffffffffffffffffffffffffffffffff16141580156123f457508273ffffffffffffffffffffffffffffffffffffffff168473ffffffffffffffffffffffffffffffffffffffff1614806123b557506123b48484610c4d565b5b806123f357508273ffffffffffffffffffffffffffffffffffffffff166123db83610e50565b73ffffffffffffffffffffffffffffffffffffffff16145b5b90509392505050565b6000604051905090565b600080fd5b600080fd5b60007fffffffff0000000000000000000000000000000000000000000000000000000082169050919050565b61244681612411565b811461245157600080fd5b50565b6000813590506124638161243d565b92915050565b60006020828403121561247f5761247e612407565b5b600061248d84828501612454565b91505092915050565b60008115159050919050565b6124ab81612496565b82525050565b60006020820190506124c660008301846124a2565b92915050565b600081519050919050565b600082825260208201905092915050565b60005b838110156125065780820151818401526020810190506124eb565b60008484015250505050565b6000601f19601f8301169050919050565b600061252e826124cc565b61253881856124d7565b93506125488185602086016124e8565b61255181612512565b840191505092915050565b600060208201905081810360008301526125768184612523565b905092915050565b6000819050919050565b6125918161257e565b811461259c57600080fd5b50565b6000813590506125ae81612588565b92915050565b6000602082840312156125ca576125c9612407565b5b60006125d88482850161259f565b91505092915050565b600073ffffffffffffffffffffffffffffffffffffffff82169050919050565b600061260c826125e1565b9050919050565b61261c81612601565b82525050565b60006020820190506126376000830184612613565b92915050565b61264681612601565b811461265157600080fd5b50565b6000813590506126638161263d565b92915050565b600080604083850312156126805761267f612407565b5b600061268e85828601612654565b925050602061269f8582860161259f565b9150509250929050565b6126b28161257e565b82525050565b60006020820190506126cd60008301846126a9565b92915050565b6000806000606084860312156126ec576126eb612407565b5b60006126fa86828701612654565b935050602061270b86828701612654565b925050604061271c8682870161259f565b9150509250925092565b60006020828403121561273c5761273b612407565b5b600061274a84828501612654565b91505092915050565b600081519050919050565b600082825260208201905092915050565b6000819050602082019050919050565b6127888161257e565b82525050565b600061279a838361277f565b60208301905092915050565b6000602082019050919050565b60006127be82612753565b6127c8818561275e565b93506127d38361276f565b8060005b838110156128045781516127eb888261278e565b97506127f6836127a6565b9250506001810190506127d7565b5085935050505092915050565b6000602082019050818103600083015261282b81846127b3565b905092915050565b61283c81612496565b811461284757600080fd5b50565b60008135905061285981612833565b92915050565b6000806040838503121561287657612875612407565b5b600061288485828601612654565b92505060206128958582860161284a565b9150509250929050565b600080fd5b600080fd5b7f4e487b7100000000000000000000000000000000000000000000000000000000600052604160045260246000fd5b6128e182612512565b810181811067ffffffffffffffff82111715612900576128ff6128a9565b5b80604052505050565b60006129136123fd565b905061291f82826128d8565b919050565b600067ffffffffffffffff82111561293f5761293e6128a9565b5b61294882612512565b9050602081019050919050565b82818337600083830152505050565b600061297761297284612924565b612909565b905082815260208101848484011115612993576129926128a4565b5b61299e848285612955565b509392505050565b600082601f8301126129bb576129ba61289f565b5b81356129cb848260208601612964565b91505092915050565b600080600080608085870312156129ee576129ed612407565b5b60006129fc87828801612654565b9450506020612a0d87828801612654565b9350506040612a1e8782880161259f565b925050606085013567ffffffffffffffff811115612a3f57612a3e61240c565b5b612a4b878288016129a6565b91505092959194509250565b60008060408385031215612a6e57612a6d612407565b5b6000612a7c85828601612654565b9250506020612a8d85828601612654565b9150509250929050565b7f4e487b7100000000000000000000000000000000000000000000000000000000600052602260045260246000fd5b60006002820490506001821680612ade57607f821691505b602082108103612af157612af0612a97565b5b50919050565b6000606082019050612b0c6000830186612613565b612b1960208301856126a9565b612b266040830184612613565b949350505050565b6000604082019050612b436000830185612613565b612b5060208301846126a9565b9392505050565b7f4e487b7100000000000000000000000000000000000000000000000000000000600052601160045260246000fd5b6000612b918261257e565b91507fffffffffffffffffffffffffffffffffffffffffffffffffffffffffffffffff8203612bc357612bc2612b57565b5b600182019050919050565b7f4e487b7100000000000000000000000000000000000000000000000000000000600052603260045260246000fd5b60008190508160005260206000209050919050565b60006020601f8301049050919050565b600082821b905092915050565b600060088302612c5f7fffffffffffffffffffffffffffffffffffffffffffffffffffffffffffffffff82612c22565b612c698683612c22565b95508019841693508086168417925050509392505050565b6000819050919050565b6000612ca6612ca1612c9c8461257e565b612c81565b61257e565b9050919050565b6000819050919050565b612cc083612c8b565b612cd4612ccc82612cad565b848454612c2f565b825550505050565b600090565b612ce9612cdc565b612cf4818484612cb7565b505050565b5b81811015612d1857612d0d600082612ce1565b600181019050612cfa565b5050565b601f821115612d5d57612d2e81612bfd565b612d3784612c12565b81016020851015612d46578190505b612d5a612d5285612c12565b830182612cf9565b50505b505050565b600082821c905092915050565b6000612d8060001984600802612d62565b1980831691505092915050565b6000612d998383612d6f565b9150826002028217905092915050565b612db2826124cc565b67ffffffffffffffff811115612dcb57612dca6128a9565b5b612dd58254612ac6565b612de0828285612d1c565b600060209050601f831160018114612e135760008415612e01578287015190505b612e0b8582612d8d565b865550612e73565b601f198416612e2186612bfd565b60005b82811015612e4957848901518255600182019150602085019450602081019050612e24565b86831015612e665784890151612e62601f891682612d6f565b8355505b6001600288020188555050505b505050505050565b600081519050919050565b600082825260208201905092915050565b6000612ea282612e7b565b612eac8185612e86565b9350612ebc8185602086016124e8565b612ec581612512565b840191505092915050565b6000608082019050612ee56000830187612613565b612ef26020830186612613565b612eff60408301856126a9565b8181036060830152612f118184612e97565b905095945050505050565b600081519050612f2b8161243d565b92915050565b600060208284031215612f4757612f46612407565b5b6000612f5584828501612f1c565b91505092915050565b600081905092915050565b6000612f74826124cc565b612f7e8185612f5e565b9350612f8e8185602086016124e8565b80840191505092915050565b6000612fa68285612f69565b9150612fb28284612f69565b91508190509392505050565b6000612fc98261257e565b9150612fd48361257e565b9250828203905081811115612fec57612feb612b57565b5b92915050565b7f4e487b7100000000000000000000000000000000000000000000000000000000600052603160045260246000fd5b7f4e487b7100000000000000000000000000000000000000000000000000000000600052601260045260246000fdfe697066733a2f2f697066732f516d4e6b76587a4d44727735525a7867554d59435059726954707439514b4a4338465950776e554c756356325556a26469706673582212207be28b125793fc4a88025f22f5fa41c9b3db6e7f5829087fe87daf826c8de4eb64736f6c634300081b0033",
  "devdoc": {
    "errors": {
      "ERC721EnumerableForbiddenBatchMint()": [
        {
          "details": "Batch mint is not allowed."
        }
      ],
      "ERC721IncorrectOwner(address,uint256,address)": [
        {
          "details": "Indicates an error related to the ownership over a particular token. Used in transfers.",
          "params": {
            "owner": "Address of the current owner of a token.",
            "sender": "Address whose tokens are being transferred.",
            "tokenId": "Identifier number of a token."
          }
        }
      ],
      "ERC721InsufficientApproval(address,uint256)": [
        {
          "details": "Indicates a failure with the `operator`s approval. Used in transfers.",
          "params": {
            "operator": "Address that may be allowed to operate on tokens without being their owner.",
            "tokenId": "Identifier number of a token."
          }
        }
      ],
      "ERC721InvalidApprover(address)": [
        {
          "details": "Indicates a failure with the `approver` of a token to be approved. Used in approvals.",
          "params": {
            "approver": "Address initiating an approval operation."
          }
        }
      ],
      "ERC721InvalidOperator(address)": [
        {
          "details": "Indicates a failure with the `operator` to be approved. Used in approvals.",
          "params": {
            "operator": "Address that may be allowed to operate on tokens without being their owner."
          }
        }
      ],
      "ERC721InvalidOwner(address)": [
        {
          "details": "Indicates that an address can't be an owner. For example, `address(0)` is a forbidden owner in EIP-20. Used in balance queries.",
          "params": {
            "owner": "Address of the current owner of a token."
          }
        }
      ],
      "ERC721InvalidReceiver(address)": [
        {
          "details": "Indicates a failure with the token `receiver`. Used in transfers.",
          "params": {
            "receiver": "Address to which tokens are being transferred."
          }
        }
      ],
      "ERC721InvalidSender(address)": [
        {
          "details": "Indicates a failure with the token `sender`. Used in transfers.",
          "params": {
            "sender": "Address whose tokens are being transferred."
          }
        }
      ],
      "ERC721NonexistentToken(uint256)": [
        {
          "details": "Indicates a `tokenId` whose `owner` is the zero address.",
          "params": {
            "tokenId": "Identifier number of a token."
          }
        }
      ],
      "ERC721OutOfBoundsIndex(address,uint256)": [
        {
          "details": "An `owner`'s token query was out of bounds for `index`. NOTE: The owner being `address(0)` indicates a global out of bounds index."
        }
      ],
      "OwnableInvalidOwner(address)": [
        {
          "details": "The owner is not a valid owner account. (eg. `address(0)`)"
        }
      ],
      "OwnableUnauthorizedAccount(address)": [
        {
          "details": "The caller account is not authorized to perform an operation."
        }
      ]
    },
    "events": {
      "Approval(address,address,uint256)": {
        "details": "Emitted when `owner` enables `approved` to manage the `tokenId` token."
      },
      "ApprovalForAll(address,address,bool)": {
        "details": "Emitted when `owner` enables or disables (`approved`) `operator` to manage all of its assets."
      },
      "BatchMetadataUpdate(uint256,uint256)": {
        "details": "This event emits when the metadata of a range of tokens is changed. So that the third-party platforms such as NFT market could timely update the images and related attributes of the NFTs."
      },
      "MetadataUpdate(uint256)": {
        "details": "This event emits when the metadata of a token is changed. So that the third-party platforms such as NFT market could timely update the images and related attributes of the NFT."
      },
      "Transfer(address,address,uint256)": {
        "details": "Emitted when `tokenId` token is transferred from `from` to `to`."
      }
    },
    "kind": "dev",
    "methods": {
      "approve(address,uint256)": {
        "details": "See {IERC721-approve}."
      },
      "balanceOf(address)": {
        "details": "See {IERC721-balanceOf}."
      },
      "burn(uint256)": {
        "details": "Burns `tokenId`. See {ERC721-_burn}. Requirements: - The caller must own `tokenId` or be an approved operator."
      },
      "getApproved(uint256)": {
        "details": "See {IERC721-getApproved}."
      },
      "isApprovedForAll(address,address)": {
        "details": "See {IERC721-isApprovedForAll}."
      },
      "name()": {
        "details": "See {IERC721Metadata-name}."
      },
      "owner()": {
        "details": "Returns the address of the current owner."
      },
      "ownerOf(uint256)": {
        "details": "See {IERC721-ownerOf}."
      },
      "renounceOwnership()": {
        "details": "Leaves the contract without owner. It will not be possible to call `onlyOwner` functions. Can only be called by the current owner. NOTE: Renouncing ownership will leave the contract without an owner, thereby disabling any functionality that is only available to the owner."
      },
      "safeTransferFrom(address,address,uint256)": {
        "details": "See {IERC721-safeTransferFrom}."
      },
      "safeTransferFrom(address,address,uint256,bytes)": {
        "details": "See {IERC721-safeTransferFrom}."
      },
      "setApprovalForAll(address,bool)": {
        "details": "See {IERC721-setApprovalForAll}."
      },
      "symbol()": {
        "details": "See {IERC721Metadata-symbol}."
      },
      "tokenByIndex(uint256)": {
        "details": "See {IERC721Enumerable-tokenByIndex}."
      },
      "tokenOfOwnerByIndex(address,uint256)": {
        "details": "See {IERC721Enumerable-tokenOfOwnerByIndex}."
      },
      "totalSupply()": {
        "details": "See {IERC721Enumerable-totalSupply}."
      },
      "transferFrom(address,address,uint256)": {
        "details": "See {IERC721-transferFrom}."
      },
      "transferOwnership(address)": {
        "details": "Transfers ownership of the contract to a new account (`newOwner`). Can only be called by the current owner."
      }
    },
    "version": 1
  },
  "userdoc": {
    "kind": "user",
    "methods": {},
    "version": 1
  },
  "storageLayout": {
    "storage": [
      {
        "astId": 1556,
        "contract": "contracts/MyToken.sol:MyToken",
        "label": "_name",
        "offset": 0,
        "slot": "0",
        "type": "t_string_storage"
      },
      {
        "astId": 1558,
        "contract": "contracts/MyToken.sol:MyToken",
        "label": "_symbol",
        "offset": 0,
        "slot": "1",
        "type": "t_string_storage"
      },
      {
        "astId": 1562,
        "contract": "contracts/MyToken.sol:MyToken",
        "label": "_owners",
        "offset": 0,
        "slot": "2",
        "type": "t_mapping(t_uint256,t_address)"
      },
      {
        "astId": 1566,
        "contract": "contracts/MyToken.sol:MyToken",
        "label": "_balances",
        "offset": 0,
        "slot": "3",
        "type": "t_mapping(t_address,t_uint256)"
      },
      {
        "astId": 1570,
        "contract": "contracts/MyToken.sol:MyToken",
        "label": "_tokenApprovals",
        "offset": 0,
        "slot": "4",
        "type": "t_mapping(t_uint256,t_address)"
      },
      {
        "astId": 1576,
        "contract": "contracts/MyToken.sol:MyToken",
        "label": "_operatorApprovals",
        "offset": 0,
        "slot": "5",
        "type": "t_mapping(t_address,t_mapping(t_address,t_bool))"
      },
      {
        "astId": 2715,
        "contract": "contracts/MyToken.sol:MyToken",
        "label": "_ownedTokens",
        "offset": 0,
        "slot": "6",
        "type": "t_mapping(t_address,t_mapping(t_uint256,t_uint256))"
      },
      {
        "astId": 2719,
        "contract": "contracts/MyToken.sol:MyToken",
        "label": "_ownedTokensIndex",
        "offset": 0,
        "slot": "7",
        "type": "t_mapping(t_uint256,t_uint256)"
      },
      {
        "astId": 2722,
        "contract": "contracts/MyToken.sol:MyToken",
        "label": "_allTokens",
        "offset": 0,
        "slot": "8",
        "type": "t_array(t_uint256)dyn_storage"
      },
      {
        "astId": 2726,
        "contract": "contracts/MyToken.sol:MyToken",
        "label": "_allTokensIndex",
        "offset": 0,
        "slot": "9",
        "type": "t_mapping(t_uint256,t_uint256)"
      },
      {
        "astId": 3108,
        "contract": "contracts/MyToken.sol:MyToken",
        "label": "_tokenURIs",
        "offset": 0,
        "slot": "10",
        "type": "t_mapping(t_uint256,t_string_storage)"
      },
      {
        "astId": 1215,
        "contract": "contracts/MyToken.sol:MyToken",
        "label": "_owner",
        "offset": 0,
        "slot": "11",
        "type": "t_address"
      },
      {
        "astId": 4757,
        "contract": "contracts/MyToken.sol:MyToken",
        "label": "_nextTokenId",
        "offset": 0,
        "slot": "12",
        "type": "t_uint256"
      },
      {
        "astId": 4764,
        "contract": "contracts/MyToken.sol:MyToken",
        "label": "isTokenIdExitStill",
        "offset": 0,
        "slot": "13",
        "type": "t_mapping(t_uint256,t_bool)"
      }
    ],
    "types": {
      "t_address": {
        "encoding": "inplace",
        "label": "address",
        "numberOfBytes": "20"
      },
      "t_array(t_uint256)dyn_storage": {
        "base": "t_uint256",
        "encoding": "dynamic_array",
        "label": "uint256[]",
        "numberOfBytes": "32"
      },
      "t_bool": {
        "encoding": "inplace",
        "label": "bool",
        "numberOfBytes": "1"
      },
      "t_mapping(t_address,t_bool)": {
        "encoding": "mapping",
        "key": "t_address",
        "label": "mapping(address => bool)",
        "numberOfBytes": "32",
        "value": "t_bool"
      },
      "t_mapping(t_address,t_mapping(t_address,t_bool))": {
        "encoding": "mapping",
        "key": "t_address",
        "label": "mapping(address => mapping(address => bool))",
        "numberOfBytes": "32",
        "value": "t_mapping(t_address,t_bool)"
      },
      "t_mapping(t_address,t_mapping(t_uint256,t_uint256))": {
        "encoding": "mapping",
        "key": "t_address",
        "label": "mapping(address => mapping(uint256 => uint256))",
        "numberOfBytes": "32",
        "value": "t_mapping(t_uint256,t_uint256)"
      },
      "t_mapping(t_address,t_uint256)": {
        "encoding": "mapping",
        "key": "t_address",
        "label": "mapping(address => uint256)",
        "numberOfBytes": "32",
        "value": "t_uint256"
      },
      "t_mapping(t_uint256,t_address)": {
        "encoding": "mapping",
        "key": "t_uint256",
        "label": "mapping(uint256 => address)",
        "numberOfBytes": "32",
        "value": "t_address"
      },
      "t_mapping(t_uint256,t_bool)": {
        "encoding": "mapping",
        "key": "t_uint256",
        "label": "mapping(uint256 => bool)",
        "numberOfBytes": "32",
        "value": "t_bool"
      },
      "t_mapping(t_uint256,t_string_storage)": {
        "encoding": "mapping",
        "key": "t_uint256",
        "label": "mapping(uint256 => string)",
        "numberOfBytes": "32",
        "value": "t_string_storage"
      },
      "t_mapping(t_uint256,t_uint256)": {
        "encoding": "mapping",
        "key": "t_uint256",
        "label": "mapping(uint256 => uint256)",
        "numberOfBytes": "32",
        "value": "t_uint256"
      },
      "t_string_storage": {
        "encoding": "bytes",
        "label": "string",
        "numberOfBytes": "32"
      },
      "t_uint256": {
        "encoding": "inplace",
        "label": "uint256",
        "numberOfBytes": "32"
      }
    }
  }
}