{
  "address": "0x2c00Fdb0771EF167373bf0feFD83d9f85Aa04461",
  "abi": [
    {
      "inputs": [
        {
          "internalType": "address",
          "name": "_router",
          "type": "address"
        },
        {
          "internalType": "address",
          "name": "_link",
          "type": "address"
        },
        {
          "internalType": "address",
          "name": "_nftAddr",
          "type": "address"
        }
      ],
      "stateMutability": "nonpayable",
      "type": "constructor"
    },
    {
      "inputs": [
        {
          "internalType": "address",
          "name": "owner",
          "type": "address"
        },
        {
          "internalType": "address",
          "name": "target",
          "type": "address"
        },
        {
          "internalType": "uint256",
          "name": "value",
          "type": "uint256"
        }
      ],
      "name": "FailedToWithdrawEth",
      "type": "error"
    },
    {
      "inputs": [],
      "name": "InvalidReceiverAddress",
      "type": "error"
    },
    {
      "inputs": [
        {
          "internalType": "address",
          "name": "router",
          "type": "address"
        }
      ],
      "name": "InvalidRouter",
      "type": "error"
    },
    {
      "inputs": [
        {
          "internalType": "uint256",
          "name": "currentBalance",
          "type": "uint256"
        },
        {
          "internalType": "uint256",
          "name": "calculatedFees",
          "type": "uint256"
        }
      ],
      "name": "NotEnoughBalance",
      "type": "error"
    },
    {
      "inputs": [],
      "name": "NothingToWithdraw",
      "type": "error"
    },
    {
      "anonymous": false,
      "inputs": [
        {
          "indexed": true,
          "internalType": "bytes32",
          "name": "messageId",
          "type": "bytes32"
        },
        {
          "indexed": true,
          "internalType": "uint64",
          "name": "destinationChainSelector",
          "type": "uint64"
        },
        {
          "indexed": false,
          "internalType": "address",
          "name": "receiver",
          "type": "address"
        },
        {
          "indexed": false,
          "internalType": "bytes",
          "name": "text",
          "type": "bytes"
        },
        {
          "indexed": false,
          "internalType": "address",
          "name": "feeToken",
          "type": "address"
        },
        {
          "indexed": false,
          "internalType": "uint256",
          "name": "fees",
          "type": "uint256"
        }
      ],
      "name": "MessageSent",
      "type": "event"
    },
    {
      "anonymous": false,
      "inputs": [
        {
          "indexed": true,
          "internalType": "address",
          "name": "from",
          "type": "address"
        },
        {
          "indexed": true,
          "internalType": "address",
          "name": "to",
          "type": "address"
        }
      ],
      "name": "OwnershipTransferRequested",
      "type": "event"
    },
    {
      "anonymous": false,
      "inputs": [
        {
          "indexed": true,
          "internalType": "address",
          "name": "from",
          "type": "address"
        },
        {
          "indexed": true,
          "internalType": "address",
          "name": "to",
          "type": "address"
        }
      ],
      "name": "OwnershipTransferred",
      "type": "event"
    },
    {
      "anonymous": false,
      "inputs": [
        {
          "indexed": false,
          "internalType": "uint256",
          "name": "tokenId",
          "type": "uint256"
        },
        {
          "indexed": false,
          "internalType": "address",
          "name": "newOwner",
          "type": "address"
        }
      ],
      "name": "ToeknUnlocked",
      "type": "event"
    },
    {
      "inputs": [],
      "name": "acceptOwnership",
      "outputs": [],
      "stateMutability": "nonpayable",
      "type": "function"
    },
    {
      "inputs": [
        {
          "components": [
            {
              "internalType": "bytes32",
              "name": "messageId",
              "type": "bytes32"
            },
            {
              "internalType": "uint64",
              "name": "sourceChainSelector",
              "type": "uint64"
            },
            {
              "internalType": "bytes",
              "name": "sender",
              "type": "bytes"
            },
            {
              "internalType": "bytes",
              "name": "data",
              "type": "bytes"
            },
            {
              "components": [
                {
                  "internalType": "address",
                  "name": "token",
                  "type": "address"
                },
                {
                  "internalType": "uint256",
                  "name": "amount",
                  "type": "uint256"
                }
              ],
              "internalType": "struct Client.EVMTokenAmount[]",
              "name": "destTokenAmounts",
              "type": "tuple[]"
            }
          ],
          "internalType": "struct Client.Any2EVMMessage",
          "name": "message",
          "type": "tuple"
        }
      ],
      "name": "ccipReceive",
      "outputs": [],
      "stateMutability": "nonpayable",
      "type": "function"
    },
    {
      "inputs": [],
      "name": "getLastReceivedMessageDetails",
      "outputs": [
        {
          "internalType": "bytes32",
          "name": "messageId",
          "type": "bytes32"
        },
        {
          "internalType": "string",
          "name": "text",
          "type": "string"
        }
      ],
      "stateMutability": "view",
      "type": "function"
    },
    {
      "inputs": [],
      "name": "getRouter",
      "outputs": [
        {
          "internalType": "address",
          "name": "",
          "type": "address"
        }
      ],
      "stateMutability": "view",
      "type": "function"
    },
    {
      "inputs": [
        {
          "internalType": "uint256",
          "name": "tokenId",
          "type": "uint256"
        },
        {
          "internalType": "address",
          "name": "newOwner",
          "type": "address"
        },
        {
          "internalType": "uint64",
          "name": "chainSelector",
          "type": "uint64"
        },
        {
          "internalType": "address",
          "name": "revceiver",
          "type": "address"
        }
      ],
      "name": "lockAndSendNFT",
      "outputs": [
        {
          "internalType": "bytes32",
          "name": "",
          "type": "bytes32"
        }
      ],
      "stateMutability": "nonpayable",
      "type": "function"
    },
    {
      "inputs": [],
      "name": "nft",
      "outputs": [
        {
          "internalType": "contract MyToken",
          "name": "",
          "type": "address"
        }
      ],
      "stateMutability": "view",
      "type": "function"
    },
    {
      "inputs": [],
      "name": "owner",
      "outputs": [
        {
          "internalType": "address",
          "name": "",
          "type": "address"
        }
      ],
      "stateMutability": "view",
      "type": "function"
    },
    {
      "inputs": [
        {
          "internalType": "bytes4",
          "name": "interfaceId",
          "type": "bytes4"
        }
      ],
      "name": "supportsInterface",
      "outputs": [
        {
          "internalType": "bool",
          "name": "",
          "type": "bool"
        }
      ],
      "stateMutability": "view",
      "type": "function"
    },
    {
      "inputs": [
        {
          "internalType": "address",
          "name": "to",
          "type": "address"
        }
      ],
      "name": "transferOwnership",
      "outputs": [],
      "stateMutability": "nonpayable",
      "type": "function"
    },
    {
      "inputs": [
        {
          "internalType": "address",
          "name": "_beneficiary",
          "type": "address"
        }
      ],
      "name": "withdraw",
      "outputs": [],
      "stateMutability": "nonpayable",
      "type": "function"
    },
    {
      "inputs": [
        {
          "internalType": "address",
          "name": "_beneficiary",
          "type": "address"
        },
        {
          "internalType": "address",
          "name": "_token",
          "type": "address"
        }
      ],
      "name": "withdrawToken",
      "outputs": [],
      "stateMutability": "nonpayable",
      "type": "function"
    },
    {
      "stateMutability": "payable",
      "type": "receive"
    }
  ],
  "transactionHash": "0xe98d08c9af466a3110188e016512ef55e0ab3310a1b1c77b6711dc1c1b83879c",
  "args": [
    "0x0BF3dE8c5D3e8A2B34D2BEeB17ABfCeBaf363A59",
    "0x779877A7B0D9E8603169DdbD7836e478b4624789",
    "0x1B6A19E1516dEDFB74B2246cAeDDEe5ecd212DCC"
  ],
  "numDeployments": 2,
  "solcInputHash": "67cb6854bda0e5ab5f1c29b25be27880",
  "bytecode": "0x60a060405234801561001057600080fd5b50604051612c6e380380612c6e833981810160405281019061003291906103ed565b3380600085600073ffffffffffffffffffffffffffffffffffffffff168173ffffffffffffffffffffffffffffffffffffffff16036100a95760006040517fd7f733340000000000000000000000000000000000000000000000000000000081526004016100a0919061044f565b60405180910390fd5b8073ffffffffffffffffffffffffffffffffffffffff1660808173ffffffffffffffffffffffffffffffffffffffff168152505050600073ffffffffffffffffffffffffffffffffffffffff168273ffffffffffffffffffffffffffffffffffffffff160361014d576040517f08c379a0000000000000000000000000000000000000000000000000000000008152600401610144906104c7565b60405180910390fd5b816000806101000a81548173ffffffffffffffffffffffffffffffffffffffff021916908373ffffffffffffffffffffffffffffffffffffffff160217905550600073ffffffffffffffffffffffffffffffffffffffff168173ffffffffffffffffffffffffffffffffffffffff16146101d1576101d08161025e60201b60201c565b5b50505081600460006101000a81548173ffffffffffffffffffffffffffffffffffffffff021916908373ffffffffffffffffffffffffffffffffffffffff16021790555080600560006101000a81548173ffffffffffffffffffffffffffffffffffffffff021916908373ffffffffffffffffffffffffffffffffffffffff160217905550505050610553565b3373ffffffffffffffffffffffffffffffffffffffff168173ffffffffffffffffffffffffffffffffffffffff16036102cc576040517f08c379a00000000000000000000000000000000000000000000000000000000081526004016102c390610533565b60405180910390fd5b80600160006101000a81548173ffffffffffffffffffffffffffffffffffffffff021916908373ffffffffffffffffffffffffffffffffffffffff1602179055508073ffffffffffffffffffffffffffffffffffffffff1660008054906101000a900473ffffffffffffffffffffffffffffffffffffffff1673ffffffffffffffffffffffffffffffffffffffff167fed8889f560326eb138920d842192f0eb3dd22b4f139c87a2c57538e05bae127860405160405180910390a350565b600080fd5b600073ffffffffffffffffffffffffffffffffffffffff82169050919050565b60006103ba8261038f565b9050919050565b6103ca816103af565b81146103d557600080fd5b50565b6000815190506103e7816103c1565b92915050565b6000806000606084860312156104065761040561038a565b5b6000610414868287016103d8565b9350506020610425868287016103d8565b9250506040610436868287016103d8565b9150509250925092565b610449816103af565b82525050565b60006020820190506104646000830184610440565b92915050565b600082825260208201905092915050565b7f43616e6e6f7420736574206f776e657220746f207a65726f0000000000000000600082015250565b60006104b160188361046a565b91506104bc8261047b565b602082019050919050565b600060208201905081810360008301526104e0816104a4565b9050919050565b7f43616e6e6f74207472616e7366657220746f2073656c66000000000000000000600082015250565b600061051d60178361046a565b9150610528826104e7565b602082019050919050565b6000602082019050818103600083015261054c81610510565b9050919050565b60805161270061056e600039600061085f01526127006000f3fe6080604052600436106100a05760003560e01c806379ba50971161006457806379ba50971461019257806385572ffb146101a95780638da5cb5b146101d2578063b0f479a1146101fd578063e34ed57514610228578063f2fde38b14610265576100a7565b806301ffc9a7146100ac578063263596a5146100e95780633aeac4e11461011557806347ccca021461013e57806351cff8d914610169576100a7565b366100a757005b600080fd5b3480156100b857600080fd5b506100d360048036038101906100ce919061161b565b61028e565b6040516100e09190611663565b60405180910390f35b3480156100f557600080fd5b506100fe610360565b60405161010c929190611727565b60405180910390f35b34801561012157600080fd5b5061013c600480360381019061013791906117b5565b6103fd565b005b34801561014a57600080fd5b506101536104ed565b6040516101609190611854565b60405180910390f35b34801561017557600080fd5b50610190600480360381019061018b919061186f565b610513565b005b34801561019e57600080fd5b506101a7610611565b005b3480156101b557600080fd5b506101d060048036038101906101cb91906118c0565b6107a6565b005b3480156101de57600080fd5b506101e7610832565b6040516101f49190611918565b60405180910390f35b34801561020957600080fd5b5061021261085b565b60405161021f9190611918565b60405180910390f35b34801561023457600080fd5b5061024f600480360381019061024a91906119a9565b610883565b60405161025c9190611a10565b60405180910390f35b34801561027157600080fd5b5061028c6004803603810190610287919061186f565b610958565b005b60007f85572ffb000000000000000000000000000000000000000000000000000000007bffffffffffffffffffffffffffffffffffffffffffffffffffffffff1916827bffffffffffffffffffffffffffffffffffffffffffffffffffffffff1916148061035957507f01ffc9a7000000000000000000000000000000000000000000000000000000007bffffffffffffffffffffffffffffffffffffffffffffffffffffffff1916827bffffffffffffffffffffffffffffffffffffffffffffffffffffffff1916145b9050919050565b60006060600254600380805461037590611a5a565b80601f01602080910402602001604051908101604052809291908181526020018280546103a190611a5a565b80156103ee5780601f106103c3576101008083540402835291602001916103ee565b820191906000526020600020905b8154815290600101906020018083116103d157829003601f168201915b50505050509050915091509091565b61040561096c565b60008173ffffffffffffffffffffffffffffffffffffffff166370a08231306040518263ffffffff1660e01b81526004016104409190611918565b602060405180830381865afa15801561045d573d6000803e3d6000fd5b505050506040513d601f19601f820116820180604052508101906104819190611aa0565b9050600081036104bd576040517fd0d04f6000000000000000000000000000000000000000000000000000000000815260040160405180910390fd5b6104e883828473ffffffffffffffffffffffffffffffffffffffff166109fc9092919063ffffffff16565b505050565b600560009054906101000a900473ffffffffffffffffffffffffffffffffffffffff1681565b61051b61096c565b60004790506000810361055a576040517fd0d04f6000000000000000000000000000000000000000000000000000000000815260040160405180910390fd5b60008273ffffffffffffffffffffffffffffffffffffffff168260405161058090611afe565b60006040518083038185875af1925050503d80600081146105bd576040519150601f19603f3d011682016040523d82523d6000602084013e6105c2565b606091505b505090508061060c573383836040517f9d11f56300000000000000000000000000000000000000000000000000000000815260040161060393929190611b22565b60405180910390fd5b505050565b600160009054906101000a900473ffffffffffffffffffffffffffffffffffffffff1673ffffffffffffffffffffffffffffffffffffffff163373ffffffffffffffffffffffffffffffffffffffff16146106a1576040517f08c379a000000000000000000000000000000000000000000000000000000000815260040161069890611ba5565b60405180910390fd5b60008060009054906101000a900473ffffffffffffffffffffffffffffffffffffffff169050336000806101000a81548173ffffffffffffffffffffffffffffffffffffffff021916908373ffffffffffffffffffffffffffffffffffffffff1602179055506000600160006101000a81548173ffffffffffffffffffffffffffffffffffffffff021916908373ffffffffffffffffffffffffffffffffffffffff1602179055503373ffffffffffffffffffffffffffffffffffffffff168173ffffffffffffffffffffffffffffffffffffffff167f8be0079c531659141344cd1fd0a4f28419497f9722a3daafe3b4186f6b6457e060405160405180910390a350565b6107ae61085b565b73ffffffffffffffffffffffffffffffffffffffff163373ffffffffffffffffffffffffffffffffffffffff161461081d57336040517fd7f733340000000000000000000000000000000000000000000000000000000081526004016108149190611918565b60405180910390fd5b61082f8161082a90611f28565b610a82565b50565b60008060009054906101000a900473ffffffffffffffffffffffffffffffffffffffff16905090565b60007f0000000000000000000000000000000000000000000000000000000000000000905090565b6000600560009054906101000a900473ffffffffffffffffffffffffffffffffffffffff1673ffffffffffffffffffffffffffffffffffffffff166323b872dd3330886040518463ffffffff1660e01b81526004016108e493929190611b22565b600060405180830381600087803b1580156108fe57600080fd5b505af1158015610912573d6000803e3d6000fd5b505050506000858560405160200161092b929190611f3b565b60405160208183030381529060405290506000610949858584610b80565b90508092505050949350505050565b61096061096c565b61096981611021565b50565b60008054906101000a900473ffffffffffffffffffffffffffffffffffffffff1673ffffffffffffffffffffffffffffffffffffffff163373ffffffffffffffffffffffffffffffffffffffff16146109fa576040517f08c379a00000000000000000000000000000000000000000000000000000000081526004016109f190611fb0565b60405180910390fd5b565b610a7d8363a9059cbb60e01b8484604051602401610a1b929190611fd0565b604051602081830303815290604052907bffffffffffffffffffffffffffffffffffffffffffffffffffffffff19166020820180517bffffffffffffffffffffffffffffffffffffffffffffffffffffffff838183161783525050505061114d565b505050565b60008160600151806020019051810190610a9c919061205e565b9050600081600001519050600082602001519050600560009054906101000a900473ffffffffffffffffffffffffffffffffffffffff1673ffffffffffffffffffffffffffffffffffffffff166323b872dd3083856040518463ffffffff1660e01b8152600401610b0f93929190611b22565b600060405180830381600087803b158015610b2957600080fd5b505af1158015610b3d573d6000803e3d6000fd5b505050507f8f2859be430a6a54fcce2d096cd6e82c93adb67feca12f879e93b670008d207c8282604051610b72929190611f3b565b60405180910390a150505050565b600082600073ffffffffffffffffffffffffffffffffffffffff168173ffffffffffffffffffffffffffffffffffffffff1603610be9576040517fa05ff47e00000000000000000000000000000000000000000000000000000000815260040160405180910390fd5b6000610c188585600460009054906101000a900473ffffffffffffffffffffffffffffffffffffffff16611214565b905060003073ffffffffffffffffffffffffffffffffffffffff1663b0f479a16040518163ffffffff1660e01b8152600401602060405180830381865afa158015610c67573d6000803e3d6000fd5b505050506040513d601f19601f82011682018060405250810190610c8b919061208b565b905060008173ffffffffffffffffffffffffffffffffffffffff166320487ded89856040518363ffffffff1660e01b8152600401610cca9291906122a3565b602060405180830381865afa158015610ce7573d6000803e3d6000fd5b505050506040513d601f19601f82011682018060405250810190610d0b9190611aa0565b9050600460009054906101000a900473ffffffffffffffffffffffffffffffffffffffff1673ffffffffffffffffffffffffffffffffffffffff166370a08231306040518263ffffffff1660e01b8152600401610d689190611918565b602060405180830381865afa158015610d85573d6000803e3d6000fd5b505050506040513d601f19601f82011682018060405250810190610da99190611aa0565b811115610e8a57600460009054906101000a900473ffffffffffffffffffffffffffffffffffffffff1673ffffffffffffffffffffffffffffffffffffffff166370a08231306040518263ffffffff1660e01b8152600401610e0b9190611918565b602060405180830381865afa158015610e28573d6000803e3d6000fd5b505050506040513d601f19601f82011682018060405250810190610e4c9190611aa0565b816040517f8f0f4206000000000000000000000000000000000000000000000000000000008152600401610e819291906122d3565b60405180910390fd5b600460009054906101000a900473ffffffffffffffffffffffffffffffffffffffff1673ffffffffffffffffffffffffffffffffffffffff1663095ea7b383836040518363ffffffff1660e01b8152600401610ee7929190611fd0565b6020604051808303816000875af1158015610f06573d6000803e3d6000fd5b505050506040513d601f19601f82011682018060405250810190610f2a9190612328565b508173ffffffffffffffffffffffffffffffffffffffff166396f4e9f989856040518363ffffffff1660e01b8152600401610f669291906122a3565b6020604051808303816000875af1158015610f85573d6000803e3d6000fd5b505050506040513d601f19601f82011682018060405250810190610fa9919061236a565b94508767ffffffffffffffff16857f3d8a9f055772202d2c3c1fddbad930d3dbe588d8692b75b84cee0719462829118989600460009054906101000a900473ffffffffffffffffffffffffffffffffffffffff168660405161100e94939291906123e1565b60405180910390a3505050509392505050565b3373ffffffffffffffffffffffffffffffffffffffff168173ffffffffffffffffffffffffffffffffffffffff160361108f576040517f08c379a000000000000000000000000000000000000000000000000000000000815260040161108690612479565b60405180910390fd5b80600160006101000a81548173ffffffffffffffffffffffffffffffffffffffff021916908373ffffffffffffffffffffffffffffffffffffffff1602179055508073ffffffffffffffffffffffffffffffffffffffff1660008054906101000a900473ffffffffffffffffffffffffffffffffffffffff1673ffffffffffffffffffffffffffffffffffffffff167fed8889f560326eb138920d842192f0eb3dd22b4f139c87a2c57538e05bae127860405160405180910390a350565b60006111af826040518060400160405280602081526020017f5361666545524332303a206c6f772d6c6576656c2063616c6c206661696c65648152508573ffffffffffffffffffffffffffffffffffffffff166112ee9092919063ffffffff16565b905060008151111561120f57808060200190518101906111cf9190612328565b61120e576040517f08c379a00000000000000000000000000000000000000000000000000000000081526004016112059061250b565b60405180910390fd5b5b505050565b61121c61153a565b6040518060a00160405280856040516020016112389190611918565b6040516020818303038152906040528152602001848152602001600067ffffffffffffffff81111561126d5761126c611bca565b5b6040519080825280602002602001820160405280156112a657816020015b61129361157f565b81526020019060019003908161128b5790505b5081526020018373ffffffffffffffffffffffffffffffffffffffff1681526020016112e2604051806020016040528062030d40815250611306565b81525090509392505050565b60606112fd8484600085611385565b90509392505050565b60606397a657c960e01b826040516024016113219190612547565b604051602081830303815290604052907bffffffffffffffffffffffffffffffffffffffffffffffffffffffff19166020820180517bffffffffffffffffffffffffffffffffffffffffffffffffffffffff83818316178352505050509050919050565b6060824710156113ca576040517f08c379a00000000000000000000000000000000000000000000000000000000081526004016113c1906125d4565b60405180910390fd5b6000808673ffffffffffffffffffffffffffffffffffffffff1685876040516113f39190612625565b60006040518083038185875af1925050503d8060008114611430576040519150601f19603f3d011682016040523d82523d6000602084013e611435565b606091505b509150915061144687838387611452565b92505050949350505050565b606083156114b45760008351036114ac5761146c856114c7565b6114ab576040517f08c379a00000000000000000000000000000000000000000000000000000000081526004016114a290612688565b60405180910390fd5b5b8290506114bf565b6114be83836114ea565b5b949350505050565b6000808273ffffffffffffffffffffffffffffffffffffffff163b119050919050565b6000825111156114fd5781518083602001fd5b806040517f08c379a000000000000000000000000000000000000000000000000000000000815260040161153191906126a8565b60405180910390fd5b6040518060a00160405280606081526020016060815260200160608152602001600073ffffffffffffffffffffffffffffffffffffffff168152602001606081525090565b6040518060400160405280600073ffffffffffffffffffffffffffffffffffffffff168152602001600081525090565b6000604051905090565b600080fd5b600080fd5b60007fffffffff0000000000000000000000000000000000000000000000000000000082169050919050565b6115f8816115c3565b811461160357600080fd5b50565b600081359050611615816115ef565b92915050565b600060208284031215611631576116306115b9565b5b600061163f84828501611606565b91505092915050565b60008115159050919050565b61165d81611648565b82525050565b60006020820190506116786000830184611654565b92915050565b6000819050919050565b6116918161167e565b82525050565b600081519050919050565b600082825260208201905092915050565b60005b838110156116d15780820151818401526020810190506116b6565b60008484015250505050565b6000601f19601f8301169050919050565b60006116f982611697565b61170381856116a2565b93506117138185602086016116b3565b61171c816116dd565b840191505092915050565b600060408201905061173c6000830185611688565b818103602083015261174e81846116ee565b90509392505050565b600073ffffffffffffffffffffffffffffffffffffffff82169050919050565b600061178282611757565b9050919050565b61179281611777565b811461179d57600080fd5b50565b6000813590506117af81611789565b92915050565b600080604083850312156117cc576117cb6115b9565b5b60006117da858286016117a0565b92505060206117eb858286016117a0565b9150509250929050565b6000819050919050565b600061181a61181561181084611757565b6117f5565b611757565b9050919050565b600061182c826117ff565b9050919050565b600061183e82611821565b9050919050565b61184e81611833565b82525050565b60006020820190506118696000830184611845565b92915050565b600060208284031215611885576118846115b9565b5b6000611893848285016117a0565b91505092915050565b600080fd5b600060a082840312156118b7576118b661189c565b5b81905092915050565b6000602082840312156118d6576118d56115b9565b5b600082013567ffffffffffffffff8111156118f4576118f36115be565b5b611900848285016118a1565b91505092915050565b61191281611777565b82525050565b600060208201905061192d6000830184611909565b92915050565b6000819050919050565b61194681611933565b811461195157600080fd5b50565b6000813590506119638161193d565b92915050565b600067ffffffffffffffff82169050919050565b61198681611969565b811461199157600080fd5b50565b6000813590506119a38161197d565b92915050565b600080600080608085870312156119c3576119c26115b9565b5b60006119d187828801611954565b94505060206119e2878288016117a0565b93505060406119f387828801611994565b9250506060611a04878288016117a0565b91505092959194509250565b6000602082019050611a256000830184611688565b92915050565b7f4e487b7100000000000000000000000000000000000000000000000000000000600052602260045260246000fd5b60006002820490506001821680611a7257607f821691505b602082108103611a8557611a84611a2b565b5b50919050565b600081519050611a9a8161193d565b92915050565b600060208284031215611ab657611ab56115b9565b5b6000611ac484828501611a8b565b91505092915050565b600081905092915050565b50565b6000611ae8600083611acd565b9150611af382611ad8565b600082019050919050565b6000611b0982611adb565b9150819050919050565b611b1c81611933565b82525050565b6000606082019050611b376000830186611909565b611b446020830185611909565b611b516040830184611b13565b949350505050565b7f4d7573742062652070726f706f736564206f776e657200000000000000000000600082015250565b6000611b8f6016836116a2565b9150611b9a82611b59565b602082019050919050565b60006020820190508181036000830152611bbe81611b82565b9050919050565b600080fd5b7f4e487b7100000000000000000000000000000000000000000000000000000000600052604160045260246000fd5b611c02826116dd565b810181811067ffffffffffffffff82111715611c2157611c20611bca565b5b80604052505050565b6000611c346115af565b9050611c408282611bf9565b919050565b600080fd5b611c538161167e565b8114611c5e57600080fd5b50565b600081359050611c7081611c4a565b92915050565b600080fd5b600080fd5b600067ffffffffffffffff821115611c9b57611c9a611bca565b5b611ca4826116dd565b9050602081019050919050565b82818337600083830152505050565b6000611cd3611cce84611c80565b611c2a565b905082815260208101848484011115611cef57611cee611c7b565b5b611cfa848285611cb1565b509392505050565b600082601f830112611d1757611d16611c76565b5b8135611d27848260208601611cc0565b91505092915050565b600067ffffffffffffffff821115611d4b57611d4a611bca565b5b602082029050602081019050919050565b600080fd5b600060408284031215611d7757611d76611bc5565b5b611d816040611c2a565b90506000611d91848285016117a0565b6000830152506020611da584828501611954565b60208301525092915050565b6000611dc4611dbf84611d30565b611c2a565b90508083825260208201905060408402830185811115611de757611de6611d5c565b5b835b81811015611e105780611dfc8882611d61565b845260208401935050604081019050611de9565b5050509392505050565b600082601f830112611e2f57611e2e611c76565b5b8135611e3f848260208601611db1565b91505092915050565b600060a08284031215611e5e57611e5d611bc5565b5b611e6860a0611c2a565b90506000611e7884828501611c61565b6000830152506020611e8c84828501611994565b602083015250604082013567ffffffffffffffff811115611eb057611eaf611c45565b5b611ebc84828501611d02565b604083015250606082013567ffffffffffffffff811115611ee057611edf611c45565b5b611eec84828501611d02565b606083015250608082013567ffffffffffffffff811115611f1057611f0f611c45565b5b611f1c84828501611e1a565b60808301525092915050565b6000611f343683611e48565b9050919050565b6000604082019050611f506000830185611b13565b611f5d6020830184611909565b9392505050565b7f4f6e6c792063616c6c61626c65206279206f776e657200000000000000000000600082015250565b6000611f9a6016836116a2565b9150611fa582611f64565b602082019050919050565b60006020820190508181036000830152611fc981611f8d565b9050919050565b6000604082019050611fe56000830185611909565b611ff26020830184611b13565b9392505050565b60008151905061200881611789565b92915050565b60006040828403121561202457612023611bc5565b5b61202e6040611c2a565b9050600061203e84828501611a8b565b600083015250602061205284828501611ff9565b60208301525092915050565b600060408284031215612074576120736115b9565b5b60006120828482850161200e565b91505092915050565b6000602082840312156120a1576120a06115b9565b5b60006120af84828501611ff9565b91505092915050565b6120c181611969565b82525050565b600081519050919050565b600082825260208201905092915050565b60006120ee826120c7565b6120f881856120d2565b93506121088185602086016116b3565b612111816116dd565b840191505092915050565b600081519050919050565b600082825260208201905092915050565b6000819050602082019050919050565b61215181611777565b82525050565b61216081611933565b82525050565b60408201600082015161217c6000850182612148565b50602082015161218f6020850182612157565b50505050565b60006121a18383612166565b60408301905092915050565b6000602082019050919050565b60006121c58261211c565b6121cf8185612127565b93506121da83612138565b8060005b8381101561220b5781516121f28882612195565b97506121fd836121ad565b9250506001810190506121de565b5085935050505092915050565b600060a083016000830151848203600086015261223582826120e3565b9150506020830151848203602086015261224f82826120e3565b9150506040830151848203604086015261226982826121ba565b915050606083015161227e6060860182612148565b506080830151848203608086015261229682826120e3565b9150508091505092915050565b60006040820190506122b860008301856120b8565b81810360208301526122ca8184612218565b90509392505050565b60006040820190506122e86000830185611b13565b6122f56020830184611b13565b9392505050565b61230581611648565b811461231057600080fd5b50565b600081519050612322816122fc565b92915050565b60006020828403121561233e5761233d6115b9565b5b600061234c84828501612313565b91505092915050565b60008151905061236481611c4a565b92915050565b6000602082840312156123805761237f6115b9565b5b600061238e84828501612355565b91505092915050565b600082825260208201905092915050565b60006123b3826120c7565b6123bd8185612397565b93506123cd8185602086016116b3565b6123d6816116dd565b840191505092915050565b60006080820190506123f66000830187611909565b818103602083015261240881866123a8565b90506124176040830185611909565b6124246060830184611b13565b95945050505050565b7f43616e6e6f74207472616e7366657220746f2073656c66000000000000000000600082015250565b60006124636017836116a2565b915061246e8261242d565b602082019050919050565b6000602082019050818103600083015261249281612456565b9050919050565b7f5361666545524332303a204552433230206f7065726174696f6e20646964206e60008201527f6f74207375636365656400000000000000000000000000000000000000000000602082015250565b60006124f5602a836116a2565b915061250082612499565b604082019050919050565b60006020820190508181036000830152612524816124e8565b9050919050565b6020820160008201516125416000850182612157565b50505050565b600060208201905061255c600083018461252b565b92915050565b7f416464726573733a20696e73756666696369656e742062616c616e636520666f60008201527f722063616c6c0000000000000000000000000000000000000000000000000000602082015250565b60006125be6026836116a2565b91506125c982612562565b604082019050919050565b600060208201905081810360008301526125ed816125b1565b9050919050565b60006125ff826120c7565b6126098185611acd565b93506126198185602086016116b3565b80840191505092915050565b600061263182846125f4565b915081905092915050565b7f416464726573733a2063616c6c20746f206e6f6e2d636f6e7472616374000000600082015250565b6000612672601d836116a2565b915061267d8261263c565b602082019050919050565b600060208201905081810360008301526126a181612665565b9050919050565b600060208201905081810360008301526126c281846116ee565b90509291505056fea26469706673582212207e04ceec2dad2c911bffd581c265656b1900a1ab5e4250e270de075b1fd4233464736f6c634300081b0033",
  "devdoc": {
    "kind": "dev",
    "methods": {
      "ccipReceive((bytes32,uint64,bytes,bytes,(address,uint256)[]))": {
        "details": "Note ensure you check the msg.sender is the OffRampRouter",
        "params": {
          "message": "CCIP Message"
        }
      },
      "constructor": {
        "params": {
          "_link": "The address of the link contract.",
          "_router": "The address of the router contract."
        }
      },
      "getLastReceivedMessageDetails()": {
        "returns": {
          "messageId": "The ID of the last received message.",
          "text": "The last received text."
        }
      },
      "getRouter()": {
        "returns": {
          "_0": "CCIP router address"
        }
      },
      "supportsInterface(bytes4)": {
        "details": "Should indicate whether the contract implements IAny2EVMMessageReceiver e.g. return interfaceId == type(IAny2EVMMessageReceiver).interfaceId || interfaceId == type(IERC165).interfaceId This allows CCIP to check if ccipReceive is available before calling it. If this returns false or reverts, only tokens are transferred to the receiver. If this returns true, tokens are transferred and ccipReceive is called atomically. Additionally, if the receiver address does not have code associated with it at the time of execution (EXTCODESIZE returns 0), only tokens will be transferred.",
        "params": {
          "interfaceId": "The interfaceId to check"
        },
        "returns": {
          "_0": "true if the interfaceId is supported"
        }
      },
      "withdraw(address)": {
        "details": "This function reverts if there are no funds to withdraw or if the transfer fails. It should only be callable by the owner of the contract.",
        "params": {
          "_beneficiary": "The address to which the Ether should be sent."
        }
      },
      "withdrawToken(address,address)": {
        "details": "This function reverts with a 'NothingToWithdraw' error if there are no tokens to withdraw.",
        "params": {
          "_beneficiary": "The address to which the tokens will be sent.",
          "_token": "The contract address of the ERC20 token to be withdrawn."
        }
      }
    },
    "title": "- A simple messenger contract for sending/receiving string data across chains.",
    "version": 1
  },
  "userdoc": {
    "kind": "user",
    "methods": {
      "acceptOwnership()": {
        "notice": "Allows an ownership transfer to be completed by the recipient."
      },
      "ccipReceive((bytes32,uint64,bytes,bytes,(address,uint256)[]))": {
        "notice": "Called by the Router to deliver a message. If this reverts, any token transfers also revert. The message will move to a FAILED state and become available for manual execution."
      },
      "constructor": {
        "notice": "Constructor initializes the contract with the router address."
      },
      "getLastReceivedMessageDetails()": {
        "notice": "Fetches the details of the last received message."
      },
      "getRouter()": {
        "notice": "Return the current router"
      },
      "owner()": {
        "notice": "Get the current owner"
      },
      "supportsInterface(bytes4)": {
        "notice": "IERC165 supports an interfaceId"
      },
      "transferOwnership(address)": {
        "notice": "Allows an owner to begin transferring ownership to a new address."
      },
      "withdraw(address)": {
        "notice": "Allows the contract owner to withdraw the entire balance of Ether from the contract."
      },
      "withdrawToken(address,address)": {
        "notice": "Allows the owner of the contract to withdraw all tokens of a specific ERC20 token."
      }
    },
    "version": 1
  },
  "storageLayout": {
    "storage": [
      {
        "astId": 283,
        "contract": "contracts/NFTPoolLockAndRelease.sol:NFTPoolLockAndRelease",
        "label": "s_owner",
        "offset": 0,
        "slot": "0",
        "type": "t_address"
      },
      {
        "astId": 285,
        "contract": "contracts/NFTPoolLockAndRelease.sol:NFTPoolLockAndRelease",
        "label": "s_pendingOwner",
        "offset": 0,
        "slot": "1",
        "type": "t_address"
      },
      {
        "astId": 5451,
        "contract": "contracts/NFTPoolLockAndRelease.sol:NFTPoolLockAndRelease",
        "label": "s_lastReceivedMessageId",
        "offset": 0,
        "slot": "2",
        "type": "t_bytes32"
      },
      {
        "astId": 5453,
        "contract": "contracts/NFTPoolLockAndRelease.sol:NFTPoolLockAndRelease",
        "label": "s_lastReceivedText",
        "offset": 0,
        "slot": "3",
        "type": "t_string_storage"
      },
      {
        "astId": 5456,
        "contract": "contracts/NFTPoolLockAndRelease.sol:NFTPoolLockAndRelease",
        "label": "s_linkToken",
        "offset": 0,
        "slot": "4",
        "type": "t_contract(IERC20)547"
      },
      {
        "astId": 5459,
        "contract": "contracts/NFTPoolLockAndRelease.sol:NFTPoolLockAndRelease",
        "label": "nft",
        "offset": 0,
        "slot": "5",
        "type": "t_contract(MyToken)4934"
      }
    ],
    "types": {
      "t_address": {
        "encoding": "inplace",
        "label": "address",
        "numberOfBytes": "20"
      },
      "t_bytes32": {
        "encoding": "inplace",
        "label": "bytes32",
        "numberOfBytes": "32"
      },
      "t_contract(IERC20)547": {
        "encoding": "inplace",
        "label": "contract IERC20",
        "numberOfBytes": "20"
      },
      "t_contract(MyToken)4934": {
        "encoding": "inplace",
        "label": "contract MyToken",
        "numberOfBytes": "20"
      },
      "t_string_storage": {
        "encoding": "bytes",
        "label": "string",
        "numberOfBytes": "32"
      }
    }
  }
}