{
  "address": "0x4CA33d6616EB52D15891aAE56346135b0456e708",
  "abi": [
    {
      "inputs": [
        {
          "internalType": "address",
          "name": "_router",
          "type": "address"
        },
        {
          "internalType": "address",
          "name": "_link",
          "type": "address"
        },
        {
          "internalType": "address",
          "name": "_wnftAddr",
          "type": "address"
        }
      ],
      "stateMutability": "nonpayable",
      "type": "constructor"
    },
    {
      "inputs": [
        {
          "internalType": "address",
          "name": "owner",
          "type": "address"
        },
        {
          "internalType": "address",
          "name": "target",
          "type": "address"
        },
        {
          "internalType": "uint256",
          "name": "value",
          "type": "uint256"
        }
      ],
      "name": "FailedToWithdrawEth",
      "type": "error"
    },
    {
      "inputs": [],
      "name": "InvalidReceiverAddress",
      "type": "error"
    },
    {
      "inputs": [
        {
          "internalType": "address",
          "name": "router",
          "type": "address"
        }
      ],
      "name": "InvalidRouter",
      "type": "error"
    },
    {
      "inputs": [
        {
          "internalType": "uint256",
          "name": "currentBalance",
          "type": "uint256"
        },
        {
          "internalType": "uint256",
          "name": "calculatedFees",
          "type": "uint256"
        }
      ],
      "name": "NotEnoughBalance",
      "type": "error"
    },
    {
      "inputs": [],
      "name": "NothingToWithdraw",
      "type": "error"
    },
    {
      "anonymous": false,
      "inputs": [
        {
          "indexed": true,
          "internalType": "bytes32",
          "name": "messageId",
          "type": "bytes32"
        },
        {
          "indexed": true,
          "internalType": "uint64",
          "name": "destinationChainSelector",
          "type": "uint64"
        },
        {
          "indexed": false,
          "internalType": "address",
          "name": "receiver",
          "type": "address"
        },
        {
          "indexed": false,
          "internalType": "bytes",
          "name": "text",
          "type": "bytes"
        },
        {
          "indexed": false,
          "internalType": "address",
          "name": "feeToken",
          "type": "address"
        },
        {
          "indexed": false,
          "internalType": "uint256",
          "name": "fees",
          "type": "uint256"
        }
      ],
      "name": "MessageSent",
      "type": "event"
    },
    {
      "anonymous": false,
      "inputs": [
        {
          "indexed": true,
          "internalType": "address",
          "name": "from",
          "type": "address"
        },
        {
          "indexed": true,
          "internalType": "address",
          "name": "to",
          "type": "address"
        }
      ],
      "name": "OwnershipTransferRequested",
      "type": "event"
    },
    {
      "anonymous": false,
      "inputs": [
        {
          "indexed": true,
          "internalType": "address",
          "name": "from",
          "type": "address"
        },
        {
          "indexed": true,
          "internalType": "address",
          "name": "to",
          "type": "address"
        }
      ],
      "name": "OwnershipTransferred",
      "type": "event"
    },
    {
      "anonymous": false,
      "inputs": [
        {
          "indexed": false,
          "internalType": "uint256",
          "name": "tokenId",
          "type": "uint256"
        },
        {
          "indexed": false,
          "internalType": "address",
          "name": "newOwner",
          "type": "address"
        }
      ],
      "name": "TokenMinted",
      "type": "event"
    },
    {
      "inputs": [],
      "name": "acceptOwnership",
      "outputs": [],
      "stateMutability": "nonpayable",
      "type": "function"
    },
    {
      "inputs": [
        {
          "internalType": "uint256",
          "name": "tokenId",
          "type": "uint256"
        },
        {
          "internalType": "address",
          "name": "newOwner",
          "type": "address"
        },
        {
          "internalType": "uint64",
          "name": "chainSelector",
          "type": "uint64"
        },
        {
          "internalType": "address",
          "name": "revceiver",
          "type": "address"
        }
      ],
      "name": "burnAndSendNFT",
      "outputs": [
        {
          "internalType": "bytes32",
          "name": "",
          "type": "bytes32"
        }
      ],
      "stateMutability": "nonpayable",
      "type": "function"
    },
    {
      "inputs": [
        {
          "components": [
            {
              "internalType": "bytes32",
              "name": "messageId",
              "type": "bytes32"
            },
            {
              "internalType": "uint64",
              "name": "sourceChainSelector",
              "type": "uint64"
            },
            {
              "internalType": "bytes",
              "name": "sender",
              "type": "bytes"
            },
            {
              "internalType": "bytes",
              "name": "data",
              "type": "bytes"
            },
            {
              "components": [
                {
                  "internalType": "address",
                  "name": "token",
                  "type": "address"
                },
                {
                  "internalType": "uint256",
                  "name": "amount",
                  "type": "uint256"
                }
              ],
              "internalType": "struct Client.EVMTokenAmount[]",
              "name": "destTokenAmounts",
              "type": "tuple[]"
            }
          ],
          "internalType": "struct Client.Any2EVMMessage",
          "name": "message",
          "type": "tuple"
        }
      ],
      "name": "ccipReceive",
      "outputs": [],
      "stateMutability": "nonpayable",
      "type": "function"
    },
    {
      "inputs": [],
      "name": "getLastReceivedMessageDetails",
      "outputs": [
        {
          "internalType": "bytes32",
          "name": "messageId",
          "type": "bytes32"
        },
        {
          "internalType": "string",
          "name": "text",
          "type": "string"
        }
      ],
      "stateMutability": "view",
      "type": "function"
    },
    {
      "inputs": [],
      "name": "getRouter",
      "outputs": [
        {
          "internalType": "address",
          "name": "",
          "type": "address"
        }
      ],
      "stateMutability": "view",
      "type": "function"
    },
    {
      "inputs": [],
      "name": "owner",
      "outputs": [
        {
          "internalType": "address",
          "name": "",
          "type": "address"
        }
      ],
      "stateMutability": "view",
      "type": "function"
    },
    {
      "inputs": [
        {
          "internalType": "bytes4",
          "name": "interfaceId",
          "type": "bytes4"
        }
      ],
      "name": "supportsInterface",
      "outputs": [
        {
          "internalType": "bool",
          "name": "",
          "type": "bool"
        }
      ],
      "stateMutability": "view",
      "type": "function"
    },
    {
      "inputs": [
        {
          "internalType": "address",
          "name": "to",
          "type": "address"
        }
      ],
      "name": "transferOwnership",
      "outputs": [],
      "stateMutability": "nonpayable",
      "type": "function"
    },
    {
      "inputs": [
        {
          "internalType": "address",
          "name": "_beneficiary",
          "type": "address"
        }
      ],
      "name": "withdraw",
      "outputs": [],
      "stateMutability": "nonpayable",
      "type": "function"
    },
    {
      "inputs": [
        {
          "internalType": "address",
          "name": "_beneficiary",
          "type": "address"
        },
        {
          "internalType": "address",
          "name": "_token",
          "type": "address"
        }
      ],
      "name": "withdrawToken",
      "outputs": [],
      "stateMutability": "nonpayable",
      "type": "function"
    },
    {
      "inputs": [],
      "name": "wnft",
      "outputs": [
        {
          "internalType": "contract WrappedMyToken",
          "name": "",
          "type": "address"
        }
      ],
      "stateMutability": "view",
      "type": "function"
    },
    {
      "stateMutability": "payable",
      "type": "receive"
    }
  ],
  "transactionHash": "0x4ce6dff80487b87923f1db557c7b45e95c2719f39482296dc79dc4c24accf024",
  "args": [
    "0x9C32fCB86BF0f4a1A8921a9Fe46de3198bb884B2",
    "0x0Fd9e8d3aF1aaee056EB9e802c3A762a667b1904",
    "0x420A58197B65dD3e0206C34C4e02020f612Bf1c1"
  ],
  "numDeployments": 1,
  "solcInputHash": "1d1b0a0593ee19aefb04cc72c054ffd2",
  "bytecode": "0x60a060405234801561001057600080fd5b50604051612d14380380612d14833981810160405281019061003291906103ed565b3380600085600073ffffffffffffffffffffffffffffffffffffffff168173ffffffffffffffffffffffffffffffffffffffff16036100a95760006040517fd7f733340000000000000000000000000000000000000000000000000000000081526004016100a0919061044f565b60405180910390fd5b8073ffffffffffffffffffffffffffffffffffffffff1660808173ffffffffffffffffffffffffffffffffffffffff168152505050600073ffffffffffffffffffffffffffffffffffffffff168273ffffffffffffffffffffffffffffffffffffffff160361014d576040517f08c379a0000000000000000000000000000000000000000000000000000000008152600401610144906104c7565b60405180910390fd5b816000806101000a81548173ffffffffffffffffffffffffffffffffffffffff021916908373ffffffffffffffffffffffffffffffffffffffff160217905550600073ffffffffffffffffffffffffffffffffffffffff168173ffffffffffffffffffffffffffffffffffffffff16146101d1576101d08161025e60201b60201c565b5b50505081600460006101000a81548173ffffffffffffffffffffffffffffffffffffffff021916908373ffffffffffffffffffffffffffffffffffffffff16021790555080600560006101000a81548173ffffffffffffffffffffffffffffffffffffffff021916908373ffffffffffffffffffffffffffffffffffffffff160217905550505050610553565b3373ffffffffffffffffffffffffffffffffffffffff168173ffffffffffffffffffffffffffffffffffffffff16036102cc576040517f08c379a00000000000000000000000000000000000000000000000000000000081526004016102c390610533565b60405180910390fd5b80600160006101000a81548173ffffffffffffffffffffffffffffffffffffffff021916908373ffffffffffffffffffffffffffffffffffffffff1602179055508073ffffffffffffffffffffffffffffffffffffffff1660008054906101000a900473ffffffffffffffffffffffffffffffffffffffff1673ffffffffffffffffffffffffffffffffffffffff167fed8889f560326eb138920d842192f0eb3dd22b4f139c87a2c57538e05bae127860405160405180910390a350565b600080fd5b600073ffffffffffffffffffffffffffffffffffffffff82169050919050565b60006103ba8261038f565b9050919050565b6103ca816103af565b81146103d557600080fd5b50565b6000815190506103e7816103c1565b92915050565b6000806000606084860312156104065761040561038a565b5b6000610414868287016103d8565b9350506020610425868287016103d8565b9250506040610436868287016103d8565b9150509250925092565b610449816103af565b82525050565b60006020820190506104646000830184610440565b92915050565b600082825260208201905092915050565b7f43616e6e6f7420736574206f776e657220746f207a65726f0000000000000000600082015250565b60006104b160188361046a565b91506104bc8261047b565b602082019050919050565b600060208201905081810360008301526104e0816104a4565b9050919050565b7f43616e6e6f74207472616e7366657220746f2073656c66000000000000000000600082015250565b600061051d60178361046a565b9150610528826104e7565b602082019050919050565b6000602082019050818103600083015261054c81610510565b9050919050565b6080516127a661056e600039600061085f01526127a66000f3fe6080604052600436106100a05760003560e01c806385572ffb1161006457806385572ffb1461017e5780638da5cb5b146101a75780639c046b1b146101d2578063b0f479a1146101fd578063b1bafd3814610228578063f2fde38b14610265576100a7565b806301ffc9a7146100ac578063263596a5146100e95780633aeac4e11461011557806351cff8d91461013e57806379ba509714610167576100a7565b366100a757005b600080fd5b3480156100b857600080fd5b506100d360048036038101906100ce91906116a6565b61028e565b6040516100e091906116ee565b60405180910390f35b3480156100f557600080fd5b506100fe610360565b60405161010c9291906117b2565b60405180910390f35b34801561012157600080fd5b5061013c60048036038101906101379190611840565b6103fd565b005b34801561014a57600080fd5b5061016560048036038101906101609190611880565b6104ed565b005b34801561017357600080fd5b5061017c6105eb565b005b34801561018a57600080fd5b506101a560048036038101906101a091906118d1565b610780565b005b3480156101b357600080fd5b506101bc61080c565b6040516101c99190611929565b60405180910390f35b3480156101de57600080fd5b506101e7610835565b6040516101f491906119a3565b60405180910390f35b34801561020957600080fd5b5061021261085b565b60405161021f9190611929565b60405180910390f35b34801561023457600080fd5b5061024f600480360381019061024a9190611a34565b610883565b60405161025c9190611a9b565b60405180910390f35b34801561027157600080fd5b5061028c60048036038101906102879190611880565b6109e5565b005b60007f85572ffb000000000000000000000000000000000000000000000000000000007bffffffffffffffffffffffffffffffffffffffffffffffffffffffff1916827bffffffffffffffffffffffffffffffffffffffffffffffffffffffff1916148061035957507f01ffc9a7000000000000000000000000000000000000000000000000000000007bffffffffffffffffffffffffffffffffffffffffffffffffffffffff1916827bffffffffffffffffffffffffffffffffffffffffffffffffffffffff1916145b9050919050565b60006060600254600380805461037590611ae5565b80601f01602080910402602001604051908101604052809291908181526020018280546103a190611ae5565b80156103ee5780601f106103c3576101008083540402835291602001916103ee565b820191906000526020600020905b8154815290600101906020018083116103d157829003601f168201915b50505050509050915091509091565b6104056109f9565b60008173ffffffffffffffffffffffffffffffffffffffff166370a08231306040518263ffffffff1660e01b81526004016104409190611929565b602060405180830381865afa15801561045d573d6000803e3d6000fd5b505050506040513d601f19601f820116820180604052508101906104819190611b2b565b9050600081036104bd576040517fd0d04f6000000000000000000000000000000000000000000000000000000000815260040160405180910390fd5b6104e883828473ffffffffffffffffffffffffffffffffffffffff16610a899092919063ffffffff16565b505050565b6104f56109f9565b600047905060008103610534576040517fd0d04f6000000000000000000000000000000000000000000000000000000000815260040160405180910390fd5b60008273ffffffffffffffffffffffffffffffffffffffff168260405161055a90611b89565b60006040518083038185875af1925050503d8060008114610597576040519150601f19603f3d011682016040523d82523d6000602084013e61059c565b606091505b50509050806105e6573383836040517f9d11f5630000000000000000000000000000000000000000000000000000000081526004016105dd93929190611bad565b60405180910390fd5b505050565b600160009054906101000a900473ffffffffffffffffffffffffffffffffffffffff1673ffffffffffffffffffffffffffffffffffffffff163373ffffffffffffffffffffffffffffffffffffffff161461067b576040517f08c379a000000000000000000000000000000000000000000000000000000000815260040161067290611c30565b60405180910390fd5b60008060009054906101000a900473ffffffffffffffffffffffffffffffffffffffff169050336000806101000a81548173ffffffffffffffffffffffffffffffffffffffff021916908373ffffffffffffffffffffffffffffffffffffffff1602179055506000600160006101000a81548173ffffffffffffffffffffffffffffffffffffffff021916908373ffffffffffffffffffffffffffffffffffffffff1602179055503373ffffffffffffffffffffffffffffffffffffffff168173ffffffffffffffffffffffffffffffffffffffff167f8be0079c531659141344cd1fd0a4f28419497f9722a3daafe3b4186f6b6457e060405160405180910390a350565b61078861085b565b73ffffffffffffffffffffffffffffffffffffffff163373ffffffffffffffffffffffffffffffffffffffff16146107f757336040517fd7f733340000000000000000000000000000000000000000000000000000000081526004016107ee9190611929565b60405180910390fd5b6108098161080490611fb3565b610b0f565b50565b60008060009054906101000a900473ffffffffffffffffffffffffffffffffffffffff16905090565b600560009054906101000a900473ffffffffffffffffffffffffffffffffffffffff1681565b60007f0000000000000000000000000000000000000000000000000000000000000000905090565b6000600560009054906101000a900473ffffffffffffffffffffffffffffffffffffffff1673ffffffffffffffffffffffffffffffffffffffff166323b872dd3330886040518463ffffffff1660e01b81526004016108e493929190611bad565b600060405180830381600087803b1580156108fe57600080fd5b505af1158015610912573d6000803e3d6000fd5b50505050600560009054906101000a900473ffffffffffffffffffffffffffffffffffffffff1673ffffffffffffffffffffffffffffffffffffffff166342966c68866040518263ffffffff1660e01b81526004016109719190611fc6565b600060405180830381600087803b15801561098b57600080fd5b505af115801561099f573d6000803e3d6000fd5b50505050600085856040516020016109b8929190611fe1565b604051602081830303815290604052905060006109d6858584610c0b565b90508092505050949350505050565b6109ed6109f9565b6109f6816110ac565b50565b60008054906101000a900473ffffffffffffffffffffffffffffffffffffffff1673ffffffffffffffffffffffffffffffffffffffff163373ffffffffffffffffffffffffffffffffffffffff1614610a87576040517f08c379a0000000000000000000000000000000000000000000000000000000008152600401610a7e90612056565b60405180910390fd5b565b610b0a8363a9059cbb60e01b8484604051602401610aa8929190612076565b604051602081830303815290604052907bffffffffffffffffffffffffffffffffffffffffffffffffffffffff19166020820180517bffffffffffffffffffffffffffffffffffffffffffffffffffffffff83818316178352505050506111d8565b505050565b60008160600151806020019051810190610b299190612104565b9050600081600001519050600082602001519050600560009054906101000a900473ffffffffffffffffffffffffffffffffffffffff1673ffffffffffffffffffffffffffffffffffffffff16638a7fea8282846040518363ffffffff1660e01b8152600401610b9a929190612076565b600060405180830381600087803b158015610bb457600080fd5b505af1158015610bc8573d6000803e3d6000fd5b505050507f3a5398bda6f1f57d6c96834fa9bf02b5517bdc847d14312015a917ba421c31c98282604051610bfd929190611fe1565b60405180910390a150505050565b600082600073ffffffffffffffffffffffffffffffffffffffff168173ffffffffffffffffffffffffffffffffffffffff1603610c74576040517fa05ff47e00000000000000000000000000000000000000000000000000000000815260040160405180910390fd5b6000610ca38585600460009054906101000a900473ffffffffffffffffffffffffffffffffffffffff1661129f565b905060003073ffffffffffffffffffffffffffffffffffffffff1663b0f479a16040518163ffffffff1660e01b8152600401602060405180830381865afa158015610cf2573d6000803e3d6000fd5b505050506040513d601f19601f82011682018060405250810190610d169190612131565b905060008173ffffffffffffffffffffffffffffffffffffffff166320487ded89856040518363ffffffff1660e01b8152600401610d55929190612349565b602060405180830381865afa158015610d72573d6000803e3d6000fd5b505050506040513d601f19601f82011682018060405250810190610d969190611b2b565b9050600460009054906101000a900473ffffffffffffffffffffffffffffffffffffffff1673ffffffffffffffffffffffffffffffffffffffff166370a08231306040518263ffffffff1660e01b8152600401610df39190611929565b602060405180830381865afa158015610e10573d6000803e3d6000fd5b505050506040513d601f19601f82011682018060405250810190610e349190611b2b565b811115610f1557600460009054906101000a900473ffffffffffffffffffffffffffffffffffffffff1673ffffffffffffffffffffffffffffffffffffffff166370a08231306040518263ffffffff1660e01b8152600401610e969190611929565b602060405180830381865afa158015610eb3573d6000803e3d6000fd5b505050506040513d601f19601f82011682018060405250810190610ed79190611b2b565b816040517f8f0f4206000000000000000000000000000000000000000000000000000000008152600401610f0c929190612379565b60405180910390fd5b600460009054906101000a900473ffffffffffffffffffffffffffffffffffffffff1673ffffffffffffffffffffffffffffffffffffffff1663095ea7b383836040518363ffffffff1660e01b8152600401610f72929190612076565b6020604051808303816000875af1158015610f91573d6000803e3d6000fd5b505050506040513d601f19601f82011682018060405250810190610fb591906123ce565b508173ffffffffffffffffffffffffffffffffffffffff166396f4e9f989856040518363ffffffff1660e01b8152600401610ff1929190612349565b6020604051808303816000875af1158015611010573d6000803e3d6000fd5b505050506040513d601f19601f820116820180604052508101906110349190612410565b94508767ffffffffffffffff16857f3d8a9f055772202d2c3c1fddbad930d3dbe588d8692b75b84cee0719462829118989600460009054906101000a900473ffffffffffffffffffffffffffffffffffffffff16866040516110999493929190612487565b60405180910390a3505050509392505050565b3373ffffffffffffffffffffffffffffffffffffffff168173ffffffffffffffffffffffffffffffffffffffff160361111a576040517f08c379a00000000000000000000000000000000000000000000000000000000081526004016111119061251f565b60405180910390fd5b80600160006101000a81548173ffffffffffffffffffffffffffffffffffffffff021916908373ffffffffffffffffffffffffffffffffffffffff1602179055508073ffffffffffffffffffffffffffffffffffffffff1660008054906101000a900473ffffffffffffffffffffffffffffffffffffffff1673ffffffffffffffffffffffffffffffffffffffff167fed8889f560326eb138920d842192f0eb3dd22b4f139c87a2c57538e05bae127860405160405180910390a350565b600061123a826040518060400160405280602081526020017f5361666545524332303a206c6f772d6c6576656c2063616c6c206661696c65648152508573ffffffffffffffffffffffffffffffffffffffff166113799092919063ffffffff16565b905060008151111561129a578080602001905181019061125a91906123ce565b611299576040517f08c379a0000000000000000000000000000000000000000000000000000000008152600401611290906125b1565b60405180910390fd5b5b505050565b6112a76115c5565b6040518060a00160405280856040516020016112c39190611929565b6040516020818303038152906040528152602001848152602001600067ffffffffffffffff8111156112f8576112f7611c55565b5b60405190808252806020026020018201604052801561133157816020015b61131e61160a565b8152602001906001900390816113165790505b5081526020018373ffffffffffffffffffffffffffffffffffffffff16815260200161136d604051806020016040528062030d40815250611391565b81525090509392505050565b60606113888484600085611410565b90509392505050565b60606397a657c960e01b826040516024016113ac91906125ed565b604051602081830303815290604052907bffffffffffffffffffffffffffffffffffffffffffffffffffffffff19166020820180517bffffffffffffffffffffffffffffffffffffffffffffffffffffffff83818316178352505050509050919050565b606082471015611455576040517f08c379a000000000000000000000000000000000000000000000000000000000815260040161144c9061267a565b60405180910390fd5b6000808673ffffffffffffffffffffffffffffffffffffffff16858760405161147e91906126cb565b60006040518083038185875af1925050503d80600081146114bb576040519150601f19603f3d011682016040523d82523d6000602084013e6114c0565b606091505b50915091506114d1878383876114dd565b92505050949350505050565b6060831561153f576000835103611537576114f785611552565b611536576040517f08c379a000000000000000000000000000000000000000000000000000000000815260040161152d9061272e565b60405180910390fd5b5b82905061154a565b6115498383611575565b5b949350505050565b6000808273ffffffffffffffffffffffffffffffffffffffff163b119050919050565b6000825111156115885781518083602001fd5b806040517f08c379a00000000000000000000000000000000000000000000000000000000081526004016115bc919061274e565b60405180910390fd5b6040518060a00160405280606081526020016060815260200160608152602001600073ffffffffffffffffffffffffffffffffffffffff168152602001606081525090565b6040518060400160405280600073ffffffffffffffffffffffffffffffffffffffff168152602001600081525090565b6000604051905090565b600080fd5b600080fd5b60007fffffffff0000000000000000000000000000000000000000000000000000000082169050919050565b6116838161164e565b811461168e57600080fd5b50565b6000813590506116a08161167a565b92915050565b6000602082840312156116bc576116bb611644565b5b60006116ca84828501611691565b91505092915050565b60008115159050919050565b6116e8816116d3565b82525050565b600060208201905061170360008301846116df565b92915050565b6000819050919050565b61171c81611709565b82525050565b600081519050919050565b600082825260208201905092915050565b60005b8381101561175c578082015181840152602081019050611741565b60008484015250505050565b6000601f19601f8301169050919050565b600061178482611722565b61178e818561172d565b935061179e81856020860161173e565b6117a781611768565b840191505092915050565b60006040820190506117c76000830185611713565b81810360208301526117d98184611779565b90509392505050565b600073ffffffffffffffffffffffffffffffffffffffff82169050919050565b600061180d826117e2565b9050919050565b61181d81611802565b811461182857600080fd5b50565b60008135905061183a81611814565b92915050565b6000806040838503121561185757611856611644565b5b60006118658582860161182b565b92505060206118768582860161182b565b9150509250929050565b60006020828403121561189657611895611644565b5b60006118a48482850161182b565b91505092915050565b600080fd5b600060a082840312156118c8576118c76118ad565b5b81905092915050565b6000602082840312156118e7576118e6611644565b5b600082013567ffffffffffffffff81111561190557611904611649565b5b611911848285016118b2565b91505092915050565b61192381611802565b82525050565b600060208201905061193e600083018461191a565b92915050565b6000819050919050565b600061196961196461195f846117e2565b611944565b6117e2565b9050919050565b600061197b8261194e565b9050919050565b600061198d82611970565b9050919050565b61199d81611982565b82525050565b60006020820190506119b86000830184611994565b92915050565b6000819050919050565b6119d1816119be565b81146119dc57600080fd5b50565b6000813590506119ee816119c8565b92915050565b600067ffffffffffffffff82169050919050565b611a11816119f4565b8114611a1c57600080fd5b50565b600081359050611a2e81611a08565b92915050565b60008060008060808587031215611a4e57611a4d611644565b5b6000611a5c878288016119df565b9450506020611a6d8782880161182b565b9350506040611a7e87828801611a1f565b9250506060611a8f8782880161182b565b91505092959194509250565b6000602082019050611ab06000830184611713565b92915050565b7f4e487b7100000000000000000000000000000000000000000000000000000000600052602260045260246000fd5b60006002820490506001821680611afd57607f821691505b602082108103611b1057611b0f611ab6565b5b50919050565b600081519050611b25816119c8565b92915050565b600060208284031215611b4157611b40611644565b5b6000611b4f84828501611b16565b91505092915050565b600081905092915050565b50565b6000611b73600083611b58565b9150611b7e82611b63565b600082019050919050565b6000611b9482611b66565b9150819050919050565b611ba7816119be565b82525050565b6000606082019050611bc2600083018661191a565b611bcf602083018561191a565b611bdc6040830184611b9e565b949350505050565b7f4d7573742062652070726f706f736564206f776e657200000000000000000000600082015250565b6000611c1a60168361172d565b9150611c2582611be4565b602082019050919050565b60006020820190508181036000830152611c4981611c0d565b9050919050565b600080fd5b7f4e487b7100000000000000000000000000000000000000000000000000000000600052604160045260246000fd5b611c8d82611768565b810181811067ffffffffffffffff82111715611cac57611cab611c55565b5b80604052505050565b6000611cbf61163a565b9050611ccb8282611c84565b919050565b600080fd5b611cde81611709565b8114611ce957600080fd5b50565b600081359050611cfb81611cd5565b92915050565b600080fd5b600080fd5b600067ffffffffffffffff821115611d2657611d25611c55565b5b611d2f82611768565b9050602081019050919050565b82818337600083830152505050565b6000611d5e611d5984611d0b565b611cb5565b905082815260208101848484011115611d7a57611d79611d06565b5b611d85848285611d3c565b509392505050565b600082601f830112611da257611da1611d01565b5b8135611db2848260208601611d4b565b91505092915050565b600067ffffffffffffffff821115611dd657611dd5611c55565b5b602082029050602081019050919050565b600080fd5b600060408284031215611e0257611e01611c50565b5b611e0c6040611cb5565b90506000611e1c8482850161182b565b6000830152506020611e30848285016119df565b60208301525092915050565b6000611e4f611e4a84611dbb565b611cb5565b90508083825260208201905060408402830185811115611e7257611e71611de7565b5b835b81811015611e9b5780611e878882611dec565b845260208401935050604081019050611e74565b5050509392505050565b600082601f830112611eba57611eb9611d01565b5b8135611eca848260208601611e3c565b91505092915050565b600060a08284031215611ee957611ee8611c50565b5b611ef360a0611cb5565b90506000611f0384828501611cec565b6000830152506020611f1784828501611a1f565b602083015250604082013567ffffffffffffffff811115611f3b57611f3a611cd0565b5b611f4784828501611d8d565b604083015250606082013567ffffffffffffffff811115611f6b57611f6a611cd0565b5b611f7784828501611d8d565b606083015250608082013567ffffffffffffffff811115611f9b57611f9a611cd0565b5b611fa784828501611ea5565b60808301525092915050565b6000611fbf3683611ed3565b9050919050565b6000602082019050611fdb6000830184611b9e565b92915050565b6000604082019050611ff66000830185611b9e565b612003602083018461191a565b9392505050565b7f4f6e6c792063616c6c61626c65206279206f776e657200000000000000000000600082015250565b600061204060168361172d565b915061204b8261200a565b602082019050919050565b6000602082019050818103600083015261206f81612033565b9050919050565b600060408201905061208b600083018561191a565b6120986020830184611b9e565b9392505050565b6000815190506120ae81611814565b92915050565b6000604082840312156120ca576120c9611c50565b5b6120d46040611cb5565b905060006120e484828501611b16565b60008301525060206120f88482850161209f565b60208301525092915050565b60006040828403121561211a57612119611644565b5b6000612128848285016120b4565b91505092915050565b60006020828403121561214757612146611644565b5b60006121558482850161209f565b91505092915050565b612167816119f4565b82525050565b600081519050919050565b600082825260208201905092915050565b60006121948261216d565b61219e8185612178565b93506121ae81856020860161173e565b6121b781611768565b840191505092915050565b600081519050919050565b600082825260208201905092915050565b6000819050602082019050919050565b6121f781611802565b82525050565b612206816119be565b82525050565b60408201600082015161222260008501826121ee565b50602082015161223560208501826121fd565b50505050565b6000612247838361220c565b60408301905092915050565b6000602082019050919050565b600061226b826121c2565b61227581856121cd565b9350612280836121de565b8060005b838110156122b1578151612298888261223b565b97506122a383612253565b925050600181019050612284565b5085935050505092915050565b600060a08301600083015184820360008601526122db8282612189565b915050602083015184820360208601526122f58282612189565b9150506040830151848203604086015261230f8282612260565b915050606083015161232460608601826121ee565b506080830151848203608086015261233c8282612189565b9150508091505092915050565b600060408201905061235e600083018561215e565b818103602083015261237081846122be565b90509392505050565b600060408201905061238e6000830185611b9e565b61239b6020830184611b9e565b9392505050565b6123ab816116d3565b81146123b657600080fd5b50565b6000815190506123c8816123a2565b92915050565b6000602082840312156123e4576123e3611644565b5b60006123f2848285016123b9565b91505092915050565b60008151905061240a81611cd5565b92915050565b60006020828403121561242657612425611644565b5b6000612434848285016123fb565b91505092915050565b600082825260208201905092915050565b60006124598261216d565b612463818561243d565b935061247381856020860161173e565b61247c81611768565b840191505092915050565b600060808201905061249c600083018761191a565b81810360208301526124ae818661244e565b90506124bd604083018561191a565b6124ca6060830184611b9e565b95945050505050565b7f43616e6e6f74207472616e7366657220746f2073656c66000000000000000000600082015250565b600061250960178361172d565b9150612514826124d3565b602082019050919050565b60006020820190508181036000830152612538816124fc565b9050919050565b7f5361666545524332303a204552433230206f7065726174696f6e20646964206e60008201527f6f74207375636365656400000000000000000000000000000000000000000000602082015250565b600061259b602a8361172d565b91506125a68261253f565b604082019050919050565b600060208201905081810360008301526125ca8161258e565b9050919050565b6020820160008201516125e760008501826121fd565b50505050565b600060208201905061260260008301846125d1565b92915050565b7f416464726573733a20696e73756666696369656e742062616c616e636520666f60008201527f722063616c6c0000000000000000000000000000000000000000000000000000602082015250565b600061266460268361172d565b915061266f82612608565b604082019050919050565b6000602082019050818103600083015261269381612657565b9050919050565b60006126a58261216d565b6126af8185611b58565b93506126bf81856020860161173e565b80840191505092915050565b60006126d7828461269a565b915081905092915050565b7f416464726573733a2063616c6c20746f206e6f6e2d636f6e7472616374000000600082015250565b6000612718601d8361172d565b9150612723826126e2565b602082019050919050565b600060208201905081810360008301526127478161270b565b9050919050565b600060208201905081810360008301526127688184611779565b90509291505056fea2646970667358221220d03ede780fbeb2d58cbc74a7b0c0078fc57bd114530bae010f3a95cfcad75d1f64736f6c634300081b0033",
  "devdoc": {
    "kind": "dev",
    "methods": {
      "ccipReceive((bytes32,uint64,bytes,bytes,(address,uint256)[]))": {
        "details": "Note ensure you check the msg.sender is the OffRampRouter",
        "params": {
          "message": "CCIP Message"
        }
      },
      "constructor": {
        "params": {
          "_link": "The address of the link contract.",
          "_router": "The address of the router contract."
        }
      },
      "getLastReceivedMessageDetails()": {
        "returns": {
          "messageId": "The ID of the last received message.",
          "text": "The last received text."
        }
      },
      "getRouter()": {
        "returns": {
          "_0": "CCIP router address"
        }
      },
      "supportsInterface(bytes4)": {
        "details": "Should indicate whether the contract implements IAny2EVMMessageReceiver e.g. return interfaceId == type(IAny2EVMMessageReceiver).interfaceId || interfaceId == type(IERC165).interfaceId This allows CCIP to check if ccipReceive is available before calling it. If this returns false or reverts, only tokens are transferred to the receiver. If this returns true, tokens are transferred and ccipReceive is called atomically. Additionally, if the receiver address does not have code associated with it at the time of execution (EXTCODESIZE returns 0), only tokens will be transferred.",
        "params": {
          "interfaceId": "The interfaceId to check"
        },
        "returns": {
          "_0": "true if the interfaceId is supported"
        }
      },
      "withdraw(address)": {
        "details": "This function reverts if there are no funds to withdraw or if the transfer fails. It should only be callable by the owner of the contract.",
        "params": {
          "_beneficiary": "The address to which the Ether should be sent."
        }
      },
      "withdrawToken(address,address)": {
        "details": "This function reverts with a 'NothingToWithdraw' error if there are no tokens to withdraw.",
        "params": {
          "_beneficiary": "The address to which the tokens will be sent.",
          "_token": "The contract address of the ERC20 token to be withdrawn."
        }
      }
    },
    "title": "- A simple messenger contract for sending/receiving string data across chains.",
    "version": 1
  },
  "userdoc": {
    "kind": "user",
    "methods": {
      "acceptOwnership()": {
        "notice": "Allows an ownership transfer to be completed by the recipient."
      },
      "ccipReceive((bytes32,uint64,bytes,bytes,(address,uint256)[]))": {
        "notice": "Called by the Router to deliver a message. If this reverts, any token transfers also revert. The message will move to a FAILED state and become available for manual execution."
      },
      "constructor": {
        "notice": "Constructor initializes the contract with the router address."
      },
      "getLastReceivedMessageDetails()": {
        "notice": "Fetches the details of the last received message."
      },
      "getRouter()": {
        "notice": "Return the current router"
      },
      "owner()": {
        "notice": "Get the current owner"
      },
      "supportsInterface(bytes4)": {
        "notice": "IERC165 supports an interfaceId"
      },
      "transferOwnership(address)": {
        "notice": "Allows an owner to begin transferring ownership to a new address."
      },
      "withdraw(address)": {
        "notice": "Allows the contract owner to withdraw the entire balance of Ether from the contract."
      },
      "withdrawToken(address,address)": {
        "notice": "Allows the owner of the contract to withdraw all tokens of a specific ERC20 token."
      }
    },
    "version": 1
  },
  "storageLayout": {
    "storage": [
      {
        "astId": 283,
        "contract": "contracts/NFTPoolBurnAndMint.sol:NFTPoolBurnAndMint",
        "label": "s_owner",
        "offset": 0,
        "slot": "0",
        "type": "t_address"
      },
      {
        "astId": 285,
        "contract": "contracts/NFTPoolBurnAndMint.sol:NFTPoolBurnAndMint",
        "label": "s_pendingOwner",
        "offset": 0,
        "slot": "1",
        "type": "t_address"
      },
      {
        "astId": 4938,
        "contract": "contracts/NFTPoolBurnAndMint.sol:NFTPoolBurnAndMint",
        "label": "s_lastReceivedMessageId",
        "offset": 0,
        "slot": "2",
        "type": "t_bytes32"
      },
      {
        "astId": 4940,
        "contract": "contracts/NFTPoolBurnAndMint.sol:NFTPoolBurnAndMint",
        "label": "s_lastReceivedText",
        "offset": 0,
        "slot": "3",
        "type": "t_string_storage"
      },
      {
        "astId": 4943,
        "contract": "contracts/NFTPoolBurnAndMint.sol:NFTPoolBurnAndMint",
        "label": "s_linkToken",
        "offset": 0,
        "slot": "4",
        "type": "t_contract(IERC20)547"
      },
      {
        "astId": 4946,
        "contract": "contracts/NFTPoolBurnAndMint.sol:NFTPoolBurnAndMint",
        "label": "wnft",
        "offset": 0,
        "slot": "5",
        "type": "t_contract(WrappedMyToken)5355"
      }
    ],
    "types": {
      "t_address": {
        "encoding": "inplace",
        "label": "address",
        "numberOfBytes": "20"
      },
      "t_bytes32": {
        "encoding": "inplace",
        "label": "bytes32",
        "numberOfBytes": "32"
      },
      "t_contract(IERC20)547": {
        "encoding": "inplace",
        "label": "contract IERC20",
        "numberOfBytes": "20"
      },
      "t_contract(WrappedMyToken)5355": {
        "encoding": "inplace",
        "label": "contract WrappedMyToken",
        "numberOfBytes": "20"
      },
      "t_string_storage": {
        "encoding": "bytes",
        "label": "string",
        "numberOfBytes": "32"
      }
    }
  }
}